{
  "_format": "hh-sol-artifact-1",
  "contractName": "KAMI1155C",
  "sourceName": "contracts/KAMI1155C.sol",
  "abi": [
    {
      "inputs": [
        {
          "internalType": "address",
          "name": "paymentToken_",
          "type": "address"
        },
        {
          "internalType": "string",
          "name": "name_",
          "type": "string"
        },
        {
          "internalType": "string",
          "name": "symbol_",
          "type": "string"
        },
        {
          "internalType": "string",
          "name": "baseTokenURI_",
          "type": "string"
        },
        {
          "internalType": "uint256",
          "name": "initialMintPrice_",
          "type": "uint256"
        },
        {
          "internalType": "address",
          "name": "platformAddress_",
          "type": "address"
        },
        {
          "internalType": "uint96",
          "name": "platformCommissionPercentage_",
          "type": "uint96"
        }
      ],
      "stateMutability": "nonpayable",
      "type": "constructor"
    },
    {
      "anonymous": false,
      "inputs": [
        {
          "indexed": true,
          "internalType": "address",
          "name": "account",
          "type": "address"
        },
        {
          "indexed": true,
          "internalType": "address",
          "name": "operator",
          "type": "address"
        },
        {
          "indexed": false,
          "internalType": "bool",
          "name": "approved",
          "type": "bool"
        }
      ],
      "name": "ApprovalForAll",
      "type": "event"
    },
    {
      "anonymous": false,
      "inputs": [
        {
          "components": [
            {
              "internalType": "address",
              "name": "receiver",
              "type": "address"
            },
            {
              "internalType": "uint96",
              "name": "feeNumerator",
              "type": "uint96"
            }
          ],
          "indexed": false,
          "internalType": "struct KamiNFTLibrary.RoyaltyData[]",
          "name": "royalties",
          "type": "tuple[]"
        }
      ],
      "name": "MintRoyaltiesUpdated",
      "type": "event"
    },
    {
      "anonymous": false,
      "inputs": [
        {
          "indexed": false,
          "internalType": "address",
          "name": "account",
          "type": "address"
        }
      ],
      "name": "Paused",
      "type": "event"
    },
    {
      "anonymous": false,
      "inputs": [
        {
          "indexed": true,
          "internalType": "uint256",
          "name": "tokenId",
          "type": "uint256"
        },
        {
          "indexed": true,
          "internalType": "address",
          "name": "platformAddress",
          "type": "address"
        },
        {
          "indexed": false,
          "internalType": "uint256",
          "name": "amount",
          "type": "uint256"
        }
      ],
      "name": "PlatformCommissionPaid",
      "type": "event"
    },
    {
      "anonymous": false,
      "inputs": [
        {
          "indexed": false,
          "internalType": "uint96",
          "name": "newPercentage",
          "type": "uint96"
        },
        {
          "indexed": false,
          "internalType": "address",
          "name": "newPlatformAddress",
          "type": "address"
        }
      ],
      "name": "PlatformCommissionUpdated",
      "type": "event"
    },
    {
      "anonymous": false,
      "inputs": [
        {
          "indexed": true,
          "internalType": "uint256",
          "name": "tokenId",
          "type": "uint256"
        },
        {
          "indexed": true,
          "internalType": "address",
          "name": "owner",
          "type": "address"
        },
        {
          "indexed": true,
          "internalType": "address",
          "name": "renter",
          "type": "address"
        }
      ],
      "name": "RentalEnded",
      "type": "event"
    },
    {
      "anonymous": false,
      "inputs": [
        {
          "indexed": true,
          "internalType": "address",
          "name": "owner",
          "type": "address"
        },
        {
          "indexed": true,
          "internalType": "address",
          "name": "renter",
          "type": "address"
        },
        {
          "indexed": true,
          "internalType": "uint256",
          "name": "tokenId",
          "type": "uint256"
        }
      ],
      "name": "RentalEnded",
      "type": "event"
    },
    {
      "anonymous": false,
      "inputs": [
        {
          "indexed": true,
          "internalType": "uint256",
          "name": "tokenId",
          "type": "uint256"
        },
        {
          "indexed": true,
          "internalType": "address",
          "name": "renter",
          "type": "address"
        },
        {
          "indexed": false,
          "internalType": "uint256",
          "name": "newEndTime",
          "type": "uint256"
        }
      ],
      "name": "RentalExtended",
      "type": "event"
    },
    {
      "anonymous": false,
      "inputs": [
        {
          "indexed": true,
          "internalType": "address",
          "name": "renter",
          "type": "address"
        },
        {
          "indexed": true,
          "internalType": "uint256",
          "name": "tokenId",
          "type": "uint256"
        },
        {
          "indexed": false,
          "internalType": "uint256",
          "name": "newEndTime",
          "type": "uint256"
        },
        {
          "indexed": false,
          "internalType": "uint256",
          "name": "additionalPayment",
          "type": "uint256"
        }
      ],
      "name": "RentalExtended",
      "type": "event"
    },
    {
      "anonymous": false,
      "inputs": [
        {
          "indexed": true,
          "internalType": "bytes32",
          "name": "role",
          "type": "bytes32"
        },
        {
          "indexed": true,
          "internalType": "bytes32",
          "name": "previousAdminRole",
          "type": "bytes32"
        },
        {
          "indexed": true,
          "internalType": "bytes32",
          "name": "newAdminRole",
          "type": "bytes32"
        }
      ],
      "name": "RoleAdminChanged",
      "type": "event"
    },
    {
      "anonymous": false,
      "inputs": [
        {
          "indexed": true,
          "internalType": "bytes32",
          "name": "role",
          "type": "bytes32"
        },
        {
          "indexed": true,
          "internalType": "address",
          "name": "account",
          "type": "address"
        },
        {
          "indexed": true,
          "internalType": "address",
          "name": "sender",
          "type": "address"
        }
      ],
      "name": "RoleGranted",
      "type": "event"
    },
    {
      "anonymous": false,
      "inputs": [
        {
          "indexed": true,
          "internalType": "bytes32",
          "name": "role",
          "type": "bytes32"
        },
        {
          "indexed": true,
          "internalType": "address",
          "name": "account",
          "type": "address"
        },
        {
          "indexed": true,
          "internalType": "address",
          "name": "sender",
          "type": "address"
        }
      ],
      "name": "RoleRevoked",
      "type": "event"
    },
    {
      "anonymous": false,
      "inputs": [
        {
          "indexed": false,
          "internalType": "uint96",
          "name": "newPercentage",
          "type": "uint96"
        }
      ],
      "name": "RoyaltyPercentageUpdated",
      "type": "event"
    },
    {
      "anonymous": false,
      "inputs": [
        {
          "indexed": true,
          "internalType": "uint256",
          "name": "tokenId",
          "type": "uint256"
        },
        {
          "components": [
            {
              "internalType": "address",
              "name": "receiver",
              "type": "address"
            },
            {
              "internalType": "uint96",
              "name": "feeNumerator",
              "type": "uint96"
            }
          ],
          "indexed": false,
          "internalType": "struct KamiNFTLibrary.RoyaltyData[]",
          "name": "royalties",
          "type": "tuple[]"
        }
      ],
      "name": "TokenMintRoyaltiesUpdated",
      "type": "event"
    },
    {
      "anonymous": false,
      "inputs": [
        {
          "indexed": true,
          "internalType": "address",
          "name": "to",
          "type": "address"
        },
        {
          "indexed": true,
          "internalType": "uint256",
          "name": "tokenId",
          "type": "uint256"
        },
        {
          "indexed": false,
          "internalType": "uint256",
          "name": "amount",
          "type": "uint256"
        },
        {
          "indexed": false,
          "internalType": "uint256",
          "name": "price",
          "type": "uint256"
        }
      ],
      "name": "TokenMinted",
      "type": "event"
    },
    {
      "anonymous": false,
      "inputs": [
        {
          "indexed": true,
          "internalType": "uint256",
          "name": "tokenId",
          "type": "uint256"
        },
        {
          "indexed": true,
          "internalType": "address",
          "name": "owner",
          "type": "address"
        },
        {
          "indexed": true,
          "internalType": "address",
          "name": "renter",
          "type": "address"
        },
        {
          "indexed": false,
          "internalType": "uint256",
          "name": "startTime",
          "type": "uint256"
        },
        {
          "indexed": false,
          "internalType": "uint256",
          "name": "endTime",
          "type": "uint256"
        },
        {
          "indexed": false,
          "internalType": "uint256",
          "name": "rentalPrice",
          "type": "uint256"
        }
      ],
      "name": "TokenRented",
      "type": "event"
    },
    {
      "anonymous": false,
      "inputs": [
        {
          "indexed": true,
          "internalType": "address",
          "name": "owner",
          "type": "address"
        },
        {
          "indexed": true,
          "internalType": "address",
          "name": "renter",
          "type": "address"
        },
        {
          "indexed": true,
          "internalType": "uint256",
          "name": "tokenId",
          "type": "uint256"
        },
        {
          "indexed": false,
          "internalType": "uint256",
          "name": "startTime",
          "type": "uint256"
        },
        {
          "indexed": false,
          "internalType": "uint256",
          "name": "endTime",
          "type": "uint256"
        },
        {
          "indexed": false,
          "internalType": "uint256",
          "name": "price",
          "type": "uint256"
        }
      ],
      "name": "TokenRented",
      "type": "event"
    },
    {
      "anonymous": false,
      "inputs": [
        {
          "indexed": true,
          "internalType": "uint256",
          "name": "tokenId",
          "type": "uint256"
        },
        {
          "indexed": true,
          "internalType": "address",
          "name": "from",
          "type": "address"
        },
        {
          "indexed": true,
          "internalType": "address",
          "name": "to",
          "type": "address"
        },
        {
          "indexed": false,
          "internalType": "uint256",
          "name": "salePrice",
          "type": "uint256"
        }
      ],
      "name": "TokenSold",
      "type": "event"
    },
    {
      "anonymous": false,
      "inputs": [
        {
          "indexed": true,
          "internalType": "address",
          "name": "from",
          "type": "address"
        },
        {
          "indexed": true,
          "internalType": "address",
          "name": "to",
          "type": "address"
        },
        {
          "indexed": true,
          "internalType": "uint256",
          "name": "tokenId",
          "type": "uint256"
        },
        {
          "indexed": false,
          "internalType": "uint256",
          "name": "amount",
          "type": "uint256"
        },
        {
          "indexed": false,
          "internalType": "uint256",
          "name": "price",
          "type": "uint256"
        }
      ],
      "name": "TokenSold",
      "type": "event"
    },
    {
      "anonymous": false,
      "inputs": [
        {
          "indexed": true,
          "internalType": "uint256",
          "name": "tokenId",
          "type": "uint256"
        },
        {
          "components": [
            {
              "internalType": "address",
              "name": "receiver",
              "type": "address"
            },
            {
              "internalType": "uint96",
              "name": "feeNumerator",
              "type": "uint96"
            }
          ],
          "indexed": false,
          "internalType": "struct KamiNFTLibrary.RoyaltyData[]",
          "name": "royalties",
          "type": "tuple[]"
        }
      ],
      "name": "TokenTransferRoyaltiesUpdated",
      "type": "event"
    },
    {
      "anonymous": false,
      "inputs": [
        {
          "indexed": true,
          "internalType": "address",
          "name": "operator",
          "type": "address"
        },
        {
          "indexed": true,
          "internalType": "address",
          "name": "from",
          "type": "address"
        },
        {
          "indexed": true,
          "internalType": "address",
          "name": "to",
          "type": "address"
        },
        {
          "indexed": false,
          "internalType": "uint256[]",
          "name": "ids",
          "type": "uint256[]"
        },
        {
          "indexed": false,
          "internalType": "uint256[]",
          "name": "values",
          "type": "uint256[]"
        }
      ],
      "name": "TransferBatch",
      "type": "event"
    },
    {
      "anonymous": false,
      "inputs": [
        {
          "components": [
            {
              "internalType": "address",
              "name": "receiver",
              "type": "address"
            },
            {
              "internalType": "uint96",
              "name": "feeNumerator",
              "type": "uint96"
            }
          ],
          "indexed": false,
          "internalType": "struct KamiNFTLibrary.RoyaltyData[]",
          "name": "royalties",
          "type": "tuple[]"
        }
      ],
      "name": "TransferRoyaltiesUpdated",
      "type": "event"
    },
    {
      "anonymous": false,
      "inputs": [
        {
          "indexed": true,
          "internalType": "uint256",
          "name": "tokenId",
          "type": "uint256"
        },
        {
          "indexed": true,
          "internalType": "address",
          "name": "from",
          "type": "address"
        },
        {
          "indexed": true,
          "internalType": "address",
          "name": "to",
          "type": "address"
        },
        {
          "indexed": false,
          "internalType": "uint256",
          "name": "amount",
          "type": "uint256"
        }
      ],
      "name": "TransferRoyaltyPaid",
      "type": "event"
    },
    {
      "anonymous": false,
      "inputs": [
        {
          "indexed": true,
          "internalType": "uint256",
          "name": "tokenId",
          "type": "uint256"
        },
        {
          "indexed": true,
          "internalType": "address",
          "name": "from",
          "type": "address"
        },
        {
          "indexed": true,
          "internalType": "address",
          "name": "to",
          "type": "address"
        },
        {
          "indexed": false,
          "internalType": "uint256",
          "name": "requiredAmount",
          "type": "uint256"
        }
      ],
      "name": "TransferRoyaltyRequired",
      "type": "event"
    },
    {
      "anonymous": false,
      "inputs": [
        {
          "indexed": true,
          "internalType": "address",
          "name": "operator",
          "type": "address"
        },
        {
          "indexed": true,
          "internalType": "address",
          "name": "from",
          "type": "address"
        },
        {
          "indexed": true,
          "internalType": "address",
          "name": "to",
          "type": "address"
        },
        {
          "indexed": false,
          "internalType": "uint256",
          "name": "id",
          "type": "uint256"
        },
        {
          "indexed": false,
          "internalType": "uint256",
          "name": "value",
          "type": "uint256"
        }
      ],
      "name": "TransferSingle",
      "type": "event"
    },
    {
      "anonymous": false,
      "inputs": [
        {
          "indexed": false,
          "internalType": "string",
          "name": "value",
          "type": "string"
        },
        {
          "indexed": true,
          "internalType": "uint256",
          "name": "id",
          "type": "uint256"
        }
      ],
      "name": "URI",
      "type": "event"
    },
    {
      "anonymous": false,
      "inputs": [
        {
          "indexed": false,
          "internalType": "address",
          "name": "account",
          "type": "address"
        }
      ],
      "name": "Unpaused",
      "type": "event"
    },
    {
      "inputs": [],
      "name": "DEFAULT_ADMIN_ROLE",
      "outputs": [
        {
          "internalType": "bytes32",
          "name": "",
          "type": "bytes32"
        }
      ],
      "stateMutability": "view",
      "type": "function"
    },
    {
      "inputs": [],
      "name": "OWNER_ROLE",
      "outputs": [
        {
          "internalType": "bytes32",
          "name": "",
          "type": "bytes32"
        }
      ],
      "stateMutability": "view",
      "type": "function"
    },
    {
      "inputs": [],
      "name": "PLATFORM_ROLE",
      "outputs": [
        {
          "internalType": "bytes32",
          "name": "",
          "type": "bytes32"
        }
      ],
      "stateMutability": "view",
      "type": "function"
    },
    {
      "inputs": [],
      "name": "RENTER_ROLE",
      "outputs": [
        {
          "internalType": "bytes32",
          "name": "",
          "type": "bytes32"
        }
      ],
      "stateMutability": "view",
      "type": "function"
    },
    {
      "inputs": [
        {
          "internalType": "uint256",
          "name": "",
          "type": "uint256"
        }
      ],
      "name": "_dummyGetApproved",
      "outputs": [
        {
          "internalType": "address",
          "name": "",
          "type": "address"
        }
      ],
      "stateMutability": "pure",
      "type": "function"
    },
    {
      "inputs": [
        {
          "internalType": "uint256",
          "name": "",
          "type": "uint256"
        }
      ],
      "name": "_dummyTokenByIndex",
      "outputs": [
        {
          "internalType": "uint256",
          "name": "",
          "type": "uint256"
        }
      ],
      "stateMutability": "pure",
      "type": "function"
    },
    {
      "inputs": [],
      "name": "_getTotalSupply",
      "outputs": [
        {
          "internalType": "uint256",
          "name": "",
          "type": "uint256"
        }
      ],
      "stateMutability": "view",
      "type": "function"
    },
    {
      "inputs": [
        {
          "internalType": "address",
          "name": "account",
          "type": "address"
        },
        {
          "internalType": "uint256",
          "name": "id",
          "type": "uint256"
        }
      ],
      "name": "balanceOf",
      "outputs": [
        {
          "internalType": "uint256",
          "name": "",
          "type": "uint256"
        }
      ],
      "stateMutability": "view",
      "type": "function"
    },
    {
      "inputs": [
        {
          "internalType": "address[]",
          "name": "accounts",
          "type": "address[]"
        },
        {
          "internalType": "uint256[]",
          "name": "ids",
          "type": "uint256[]"
        }
      ],
      "name": "balanceOfBatch",
      "outputs": [
        {
          "internalType": "uint256[]",
          "name": "",
          "type": "uint256[]"
        }
      ],
      "stateMutability": "view",
      "type": "function"
    },
    {
      "inputs": [
        {
          "internalType": "uint256",
          "name": "tokenId",
          "type": "uint256"
        },
        {
          "internalType": "uint256",
          "name": "amount",
          "type": "uint256"
        }
      ],
      "name": "burn",
      "outputs": [],
      "stateMutability": "nonpayable",
      "type": "function"
    },
    {
      "inputs": [
        {
          "internalType": "uint256[]",
          "name": "tokenIds",
          "type": "uint256[]"
        },
        {
          "internalType": "uint256[]",
          "name": "amounts",
          "type": "uint256[]"
        }
      ],
      "name": "burnBatch",
      "outputs": [],
      "stateMutability": "nonpayable",
      "type": "function"
    },
    {
      "inputs": [
        {
          "internalType": "uint256",
          "name": "tokenId",
          "type": "uint256"
        }
      ],
      "name": "endRental",
      "outputs": [],
      "stateMutability": "nonpayable",
      "type": "function"
    },
    {
      "inputs": [
        {
          "internalType": "uint256",
          "name": "tokenId",
          "type": "uint256"
        }
      ],
      "name": "exists",
      "outputs": [
        {
          "internalType": "bool",
          "name": "",
          "type": "bool"
        }
      ],
      "stateMutability": "view",
      "type": "function"
    },
    {
      "inputs": [
        {
          "internalType": "uint256",
          "name": "tokenId",
          "type": "uint256"
        },
        {
          "internalType": "uint256",
          "name": "additionalDuration",
          "type": "uint256"
        },
        {
          "internalType": "uint256",
          "name": "additionalPayment",
          "type": "uint256"
        }
      ],
      "name": "extendRental",
      "outputs": [],
      "stateMutability": "nonpayable",
      "type": "function"
    },
    {
      "inputs": [
        {
          "internalType": "uint256",
          "name": "tokenId",
          "type": "uint256"
        }
      ],
      "name": "getMintRoyaltyReceivers",
      "outputs": [
        {
          "components": [
            {
              "internalType": "address",
              "name": "receiver",
              "type": "address"
            },
            {
              "internalType": "uint96",
              "name": "feeNumerator",
              "type": "uint96"
            }
          ],
          "internalType": "struct KamiNFTLibrary.RoyaltyData[]",
          "name": "",
          "type": "tuple[]"
        }
      ],
      "stateMutability": "view",
      "type": "function"
    },
    {
      "inputs": [
        {
          "internalType": "uint256",
          "name": "tokenId",
          "type": "uint256"
        }
      ],
      "name": "getRentalInfo",
      "outputs": [
        {
          "internalType": "address",
          "name": "renter",
          "type": "address"
        },
        {
          "internalType": "uint256",
          "name": "startTime",
          "type": "uint256"
        },
        {
          "internalType": "uint256",
          "name": "endTime",
          "type": "uint256"
        },
        {
          "internalType": "uint256",
          "name": "rentalPrice",
          "type": "uint256"
        },
        {
          "internalType": "bool",
          "name": "active",
          "type": "bool"
        }
      ],
      "stateMutability": "view",
      "type": "function"
    },
    {
      "inputs": [
        {
          "internalType": "bytes32",
          "name": "role",
          "type": "bytes32"
        }
      ],
      "name": "getRoleAdmin",
      "outputs": [
        {
          "internalType": "bytes32",
          "name": "",
          "type": "bytes32"
        }
      ],
      "stateMutability": "view",
      "type": "function"
    },
    {
      "inputs": [
        {
          "internalType": "uint256",
          "name": "tokenId",
          "type": "uint256"
        }
      ],
      "name": "getTransferRoyaltyReceivers",
      "outputs": [
        {
          "components": [
            {
              "internalType": "address",
              "name": "receiver",
              "type": "address"
            },
            {
              "internalType": "uint96",
              "name": "feeNumerator",
              "type": "uint96"
            }
          ],
          "internalType": "struct KamiNFTLibrary.RoyaltyData[]",
          "name": "",
          "type": "tuple[]"
        }
      ],
      "stateMutability": "view",
      "type": "function"
    },
    {
      "inputs": [
        {
          "internalType": "bytes32",
          "name": "role",
          "type": "bytes32"
        },
        {
          "internalType": "address",
          "name": "account",
          "type": "address"
        }
      ],
      "name": "grantRole",
      "outputs": [],
      "stateMutability": "nonpayable",
      "type": "function"
    },
    {
      "inputs": [
        {
          "internalType": "address",
          "name": "user",
          "type": "address"
        }
      ],
      "name": "hasActiveRentals",
      "outputs": [
        {
          "internalType": "bool",
          "name": "",
          "type": "bool"
        }
      ],
      "stateMutability": "view",
      "type": "function"
    },
    {
      "inputs": [
        {
          "internalType": "bytes32",
          "name": "role",
          "type": "bytes32"
        },
        {
          "internalType": "address",
          "name": "account",
          "type": "address"
        }
      ],
      "name": "hasRole",
      "outputs": [
        {
          "internalType": "bool",
          "name": "",
          "type": "bool"
        }
      ],
      "stateMutability": "view",
      "type": "function"
    },
    {
      "inputs": [
        {
          "internalType": "address",
          "name": "to",
          "type": "address"
        },
        {
          "internalType": "uint256",
          "name": "tokenId",
          "type": "uint256"
        },
        {
          "internalType": "uint256",
          "name": "salePrice",
          "type": "uint256"
        }
      ],
      "name": "initiateTransferWithRoyalty",
      "outputs": [],
      "stateMutability": "nonpayable",
      "type": "function"
    },
    {
      "inputs": [
        {
          "internalType": "address",
          "name": "account",
          "type": "address"
        },
        {
          "internalType": "address",
          "name": "operator",
          "type": "address"
        }
      ],
      "name": "isApprovedForAll",
      "outputs": [
        {
          "internalType": "bool",
          "name": "",
          "type": "bool"
        }
      ],
      "stateMutability": "view",
      "type": "function"
    },
    {
      "inputs": [
        {
          "internalType": "uint256",
          "name": "tokenId",
          "type": "uint256"
        }
      ],
      "name": "isRented",
      "outputs": [
        {
          "internalType": "bool",
          "name": "",
          "type": "bool"
        }
      ],
      "stateMutability": "view",
      "type": "function"
    },
    {
      "inputs": [
        {
          "internalType": "address",
          "name": "from",
          "type": "address"
        },
        {
          "internalType": "address",
          "name": "to",
          "type": "address"
        },
        {
          "internalType": "uint256",
          "name": "tokenId",
          "type": "uint256"
        },
        {
          "internalType": "uint256",
          "name": "salePrice",
          "type": "uint256"
        }
      ],
      "name": "isTransferRoyaltyRequired",
      "outputs": [
        {
          "internalType": "bool",
          "name": "",
          "type": "bool"
        }
      ],
      "stateMutability": "view",
      "type": "function"
    },
    {
      "inputs": [
        {
          "internalType": "uint256",
          "name": "amount",
          "type": "uint256"
        }
      ],
      "name": "mint",
      "outputs": [],
      "stateMutability": "nonpayable",
      "type": "function"
    },
    {
      "inputs": [
        {
          "internalType": "uint256[]",
          "name": "amounts",
          "type": "uint256[]"
        }
      ],
      "name": "mintBatch",
      "outputs": [],
      "stateMutability": "nonpayable",
      "type": "function"
    },
    {
      "inputs": [],
      "name": "mintPrice",
      "outputs": [
        {
          "internalType": "uint256",
          "name": "",
          "type": "uint256"
        }
      ],
      "stateMutability": "view",
      "type": "function"
    },
    {
      "inputs": [],
      "name": "nextTokenId",
      "outputs": [
        {
          "internalType": "uint256",
          "name": "",
          "type": "uint256"
        }
      ],
      "stateMutability": "view",
      "type": "function"
    },
    {
      "inputs": [],
      "name": "pause",
      "outputs": [],
      "stateMutability": "nonpayable",
      "type": "function"
    },
    {
      "inputs": [],
      "name": "paused",
      "outputs": [
        {
          "internalType": "bool",
          "name": "",
          "type": "bool"
        }
      ],
      "stateMutability": "view",
      "type": "function"
    },
    {
      "inputs": [
        {
          "internalType": "address",
          "name": "seller",
          "type": "address"
        },
        {
          "internalType": "address",
          "name": "to",
          "type": "address"
        },
        {
          "internalType": "uint256",
          "name": "tokenId",
          "type": "uint256"
        },
        {
          "internalType": "uint256",
          "name": "salePrice",
          "type": "uint256"
        }
      ],
      "name": "payTransferRoyalty",
      "outputs": [],
      "stateMutability": "nonpayable",
      "type": "function"
    },
    {
      "inputs": [],
      "name": "paymentToken",
      "outputs": [
        {
          "internalType": "contract IERC20",
          "name": "",
          "type": "address"
        }
      ],
      "stateMutability": "view",
      "type": "function"
    },
    {
      "inputs": [],
      "name": "platformAddress",
      "outputs": [
        {
          "internalType": "address",
          "name": "",
          "type": "address"
        }
      ],
      "stateMutability": "view",
      "type": "function"
    },
    {
      "inputs": [],
      "name": "platformCommission",
      "outputs": [
        {
          "internalType": "uint96",
          "name": "",
          "type": "uint96"
        }
      ],
      "stateMutability": "view",
      "type": "function"
    },
    {
      "inputs": [],
      "name": "platformCommissionPercentage",
      "outputs": [
        {
          "internalType": "uint96",
          "name": "",
          "type": "uint96"
        }
      ],
      "stateMutability": "view",
      "type": "function"
    },
    {
      "inputs": [
        {
          "internalType": "bytes32",
          "name": "role",
          "type": "bytes32"
        },
        {
          "internalType": "address",
          "name": "account",
          "type": "address"
        }
      ],
      "name": "renounceRole",
      "outputs": [],
      "stateMutability": "nonpayable",
      "type": "function"
    },
    {
      "inputs": [
        {
          "internalType": "uint256",
          "name": "tokenId",
          "type": "uint256"
        },
        {
          "internalType": "uint256",
          "name": "duration",
          "type": "uint256"
        },
        {
          "internalType": "uint256",
          "name": "rentalPrice",
          "type": "uint256"
        }
      ],
      "name": "rentToken",
      "outputs": [],
      "stateMutability": "nonpayable",
      "type": "function"
    },
    {
      "inputs": [
        {
          "internalType": "bytes32",
          "name": "role",
          "type": "bytes32"
        },
        {
          "internalType": "address",
          "name": "account",
          "type": "address"
        }
      ],
      "name": "revokeRole",
      "outputs": [],
      "stateMutability": "nonpayable",
      "type": "function"
    },
    {
      "inputs": [
        {
          "internalType": "uint256",
          "name": "tokenId",
          "type": "uint256"
        },
        {
          "internalType": "uint256",
          "name": "salePrice",
          "type": "uint256"
        }
      ],
      "name": "royaltyInfo",
      "outputs": [
        {
          "internalType": "address",
          "name": "receiver",
          "type": "address"
        },
        {
          "internalType": "uint256",
          "name": "royaltyAmount",
          "type": "uint256"
        }
      ],
      "stateMutability": "view",
      "type": "function"
    },
    {
      "inputs": [],
      "name": "royaltyPercentage",
      "outputs": [
        {
          "internalType": "uint96",
          "name": "",
          "type": "uint96"
        }
      ],
      "stateMutability": "view",
      "type": "function"
    },
    {
      "inputs": [
        {
          "internalType": "address",
          "name": "from",
          "type": "address"
        },
        {
          "internalType": "address",
          "name": "to",
          "type": "address"
        },
        {
          "internalType": "uint256[]",
          "name": "ids",
          "type": "uint256[]"
        },
        {
          "internalType": "uint256[]",
          "name": "amounts",
          "type": "uint256[]"
        },
        {
          "internalType": "bytes",
          "name": "data",
          "type": "bytes"
        }
      ],
      "name": "safeBatchTransferFrom",
      "outputs": [],
      "stateMutability": "nonpayable",
      "type": "function"
    },
    {
      "inputs": [
        {
          "internalType": "address",
          "name": "from",
          "type": "address"
        },
        {
          "internalType": "address",
          "name": "to",
          "type": "address"
        },
        {
          "internalType": "uint256",
          "name": "id",
          "type": "uint256"
        },
        {
          "internalType": "uint256",
          "name": "amount",
          "type": "uint256"
        },
        {
          "internalType": "bytes",
          "name": "data",
          "type": "bytes"
        }
      ],
      "name": "safeTransferFrom",
      "outputs": [],
      "stateMutability": "nonpayable",
      "type": "function"
    },
    {
      "inputs": [
        {
          "internalType": "address",
          "name": "to",
          "type": "address"
        },
        {
          "internalType": "uint256",
          "name": "tokenId",
          "type": "uint256"
        },
        {
          "internalType": "uint256",
          "name": "amount",
          "type": "uint256"
        },
        {
          "internalType": "uint256",
          "name": "salePrice",
          "type": "uint256"
        }
      ],
      "name": "sellToken",
      "outputs": [],
      "stateMutability": "nonpayable",
      "type": "function"
    },
    {
      "inputs": [
        {
          "internalType": "address",
          "name": "operator",
          "type": "address"
        },
        {
          "internalType": "bool",
          "name": "approved",
          "type": "bool"
        }
      ],
      "name": "setApprovalForAll",
      "outputs": [],
      "stateMutability": "nonpayable",
      "type": "function"
    },
    {
      "inputs": [
        {
          "internalType": "string",
          "name": "baseURI",
          "type": "string"
        }
      ],
      "name": "setBaseURI",
      "outputs": [],
      "stateMutability": "nonpayable",
      "type": "function"
    },
    {
      "inputs": [
        {
          "internalType": "uint256",
          "name": "newMintPrice",
          "type": "uint256"
        }
      ],
      "name": "setMintPrice",
      "outputs": [],
      "stateMutability": "nonpayable",
      "type": "function"
    },
    {
      "inputs": [
        {
          "components": [
            {
              "internalType": "address",
              "name": "receiver",
              "type": "address"
            },
            {
              "internalType": "uint96",
              "name": "feeNumerator",
              "type": "uint96"
            }
          ],
          "internalType": "struct KamiNFTLibrary.RoyaltyData[]",
          "name": "royalties",
          "type": "tuple[]"
        }
      ],
      "name": "setMintRoyalties",
      "outputs": [],
      "stateMutability": "nonpayable",
      "type": "function"
    },
    {
      "inputs": [
        {
          "internalType": "uint96",
          "name": "newPlatformCommissionPercentage",
          "type": "uint96"
        },
        {
          "internalType": "address",
          "name": "newPlatformAddress",
          "type": "address"
        }
      ],
      "name": "setPlatformCommission",
      "outputs": [],
      "stateMutability": "nonpayable",
      "type": "function"
    },
    {
      "inputs": [
        {
          "internalType": "uint96",
          "name": "newRoyaltyPercentage",
          "type": "uint96"
        }
      ],
      "name": "setRoyaltyPercentage",
      "outputs": [],
      "stateMutability": "nonpayable",
      "type": "function"
    },
    {
      "inputs": [
        {
          "internalType": "uint256",
          "name": "tokenId",
          "type": "uint256"
        },
        {
          "components": [
            {
              "internalType": "address",
              "name": "receiver",
              "type": "address"
            },
            {
              "internalType": "uint96",
              "name": "feeNumerator",
              "type": "uint96"
            }
          ],
          "internalType": "struct KamiNFTLibrary.RoyaltyData[]",
          "name": "royalties",
          "type": "tuple[]"
        }
      ],
      "name": "setTokenMintRoyalties",
      "outputs": [],
      "stateMutability": "nonpayable",
      "type": "function"
    },
    {
      "inputs": [
        {
          "internalType": "uint256",
          "name": "tokenId",
          "type": "uint256"
        },
        {
          "components": [
            {
              "internalType": "address",
              "name": "receiver",
              "type": "address"
            },
            {
              "internalType": "uint96",
              "name": "feeNumerator",
              "type": "uint96"
            }
          ],
          "internalType": "struct KamiNFTLibrary.RoyaltyData[]",
          "name": "royalties",
          "type": "tuple[]"
        }
      ],
      "name": "setTokenTransferRoyalties",
      "outputs": [],
      "stateMutability": "nonpayable",
      "type": "function"
    },
    {
      "inputs": [
        {
          "components": [
            {
              "internalType": "address",
              "name": "receiver",
              "type": "address"
            },
            {
              "internalType": "uint96",
              "name": "feeNumerator",
              "type": "uint96"
            }
          ],
          "internalType": "struct KamiNFTLibrary.RoyaltyData[]",
          "name": "royalties",
          "type": "tuple[]"
        }
      ],
      "name": "setTransferRoyalties",
      "outputs": [],
      "stateMutability": "nonpayable",
      "type": "function"
    },
    {
      "inputs": [
        {
          "internalType": "bytes4",
          "name": "interfaceId",
          "type": "bytes4"
        }
      ],
      "name": "supportsInterface",
      "outputs": [
        {
          "internalType": "bool",
          "name": "",
          "type": "bool"
        }
      ],
      "stateMutability": "view",
      "type": "function"
    },
    {
      "inputs": [
        {
          "internalType": "uint256",
          "name": "id",
          "type": "uint256"
        }
      ],
      "name": "totalSupply",
      "outputs": [
        {
          "internalType": "uint256",
          "name": "",
          "type": "uint256"
        }
      ],
      "stateMutability": "view",
      "type": "function"
    },
    {
      "inputs": [],
      "name": "unpause",
      "outputs": [],
      "stateMutability": "nonpayable",
      "type": "function"
    },
    {
      "inputs": [
        {
          "internalType": "uint256",
          "name": "tokenId",
          "type": "uint256"
        }
      ],
      "name": "uri",
      "outputs": [
        {
          "internalType": "string",
          "name": "",
          "type": "string"
        }
      ],
      "stateMutability": "view",
      "type": "function"
    }
  ],
  "bytecode": "0x604060a08152346200061b5762007252803803806200001e8162000620565b928339810160e0828203126200061b57620000398262000646565b60208381015190936001600160401b039390918481116200061b5781620000629184016200065b565b50858201518481116200061b57816200007d9184016200065b565b506060820151908482116200061b57620000999183016200065b565b9060808101519260c0620000b060a0840162000646565b9201516001600160601b03811691908290036200061b57835193868511620004f857600395865497600196878a811c9a16801562000610575b8b8b1014620004d7578a601f9a8b8111620005c3575b5050808b8b82116001146200055e5760009162000552575b50600019828b1b1c191690881b1788555b6007805460ff19908116909155976001600160a01b039485169485156200050e578716998a1515946200015b86620006cd565b6107d0881115966200016d886200071a565b6080528051938411620004f857600e54808b1c908b168e8115620004ed575b821014620004d75780838f921162000489575b50508c918411600114620003fd5792620001e294928192620001e8989795600093620003f1575b5050828b1b92600019911b1c191617600e555b600d55620006cd565b6200071a565b60018060601b0319809260601b16177fde1159fbbeca73b2aca5752c42b257ca18171ae3b3d3bbf22c7938e3a961a0cb556103e87f1aa44fcb526383bd2f7c6231f8c09a41edc5b654966336907d6f785a5b3d288f9182541617905560008052600084528460002033600052845260ff85600020541615620003b6575b7fb19546dff01e856fb3f010c267a7b1c60363cf8a4664e21cc89c26224620214e80600052600085528560002033600052855260ff8660002054161562000379575b507f797343f8d6a29aafeb3aaf0910a8973e0081c60c2f6c1f775cd9f76ea348fc1e9384600052600081528560002084600052815260ff866000205416156200033b575b8551616aca908162000768823960805181818161034701528181610db101528181610de001528181610f270152818161131c01528181611c27015281816128c00152818161303a01526138d40152f35b8460005260008152856000209084600052528460002091825416179055339160008051602062007232833981519152600080a43880808080620002eb565b8060005260008552856000203360005285528560002082848254161790553390339060008051602062007232833981519152600080a438620002a7565b60008052600084528460002033600052845284600020818382541617905533336000600080516020620072328339815191528180a462000265565b015191503880620001c6565b918c918a9493601f198516600e60005284600020946000905b8282106200046557505091859391620001e29896620001e89b9a989694106200044a575b50505050811b01600e55620001d9565b01519060f884600019921b161c19169055388080806200043a565b9192939697829195968886015181550196019301908f918d97969594939262000416565b600e60005283826000209181880160051c8301938810620004cd575b0160051c01908b905b828110620004c057508e91506200019f565b60008155018b90620004ae565b92508192620004a5565b634e487b7160e01b600052602260045260246000fd5b91607f16916200018c565b634e487b7160e01b600052604160045260246000fd5b8c5162461bcd60e51b8152600481018d9052601d60248201527f496e76616c6964207061796d656e7420746f6b656e20616464726573730000006044820152606490fd5b90508401513862000117565b60008b81528d81208b94509190601f198416908f5b828210620005ab575050831162000592575b5050811b01885562000128565b860151600019838d1b60f8161c19169055388062000585565b838a015185558d969094019392830192018f62000573565b8a6000528b826000209181850160051c830193851062000606575b0160051c019089905b828110620005f957508c9150620000ff565b60008155018990620005e7565b92508192620005de565b99607f1699620000e9565b600080fd5b6040519190601f01601f191682016001600160401b03811183821017620004f857604052565b51906001600160a01b03821682036200061b57565b919080601f840112156200061b5782516001600160401b038111620004f85760209062000691601f8201601f1916830162000620565b928184528282870101116200061b5760005b818110620006b957508260009394955001015290565b8581018301518482018401528201620006a3565b15620006d557565b60405162461bcd60e51b815260206004820152601860248201527f496e76616c696420706c6174666f726d206164647265737300000000000000006044820152606490fd5b156200072257565b60405162461bcd60e51b815260206004820152601c60248201527f506c6174666f726d20636f6d6d697373696f6e20746f6f2068696768000000006044820152606490fdfe6080604052600436101561001257600080fd5b60003560e01c8062fdd58e14613ade57806301ffc9a714613a2a57806306d228f91461386b5780630a0a35151461368c5780630daf4c97146136665780630e89341c1461356957806310c551c5146133ed5780631c2098dc14612fff5780631fc7f7e914612f96578063248a9ca314612f6757806327dc3fbd14612ed25780632a55205a14612e9e5780632eb2c2d6146129a25780632f2ff15d146128ef5780633013ce29146128aa57806336568abe146128185780633f4ba83a14612763578063463dace014612744578063492ae5a31461248e5780634e1273f41461231d5780634f558e79146122e757806355f804b31461211d5780635c975abb146120fa5780635e27a775146120cb578063602481b614611e6a5780636817c76c14611e4c578063694e91b81461181c57806370824c5c14611e1157806375794a3c14611ba15780637584b99b14611bc25780638144433814611ba657806382e1350a14611ba157806383ca4b6f146119815780638456cb59146119065780638a71bb2d146118d2578063906a8b2e1461186e57806391d148541461182157806392303e061461181c57806397491d6f146116055780639f6d68b0146114c4578063a0712d68146112e6578063a217fddf146112ca578063a22cb465146111dd578063aa15d40f14611194578063b390c0ab146110a3578063b97c9f7714611068578063bd85b0391461103c578063c8a9aabc14610c53578063d547741f14610c14578063dbe55e5614610be6578063e58378bb14610bbd578063e5f2e0cc146109b8578063e985e9c514610962578063f242432a1461090f578063f249fd161461068d578063f4a0a5281461064b5763ffb2b55a1461028e57600080fd5b346106465760031960203682018113610646576004356001600160401b038111610646576102c0903690600401613cea565b6102c86147dc565b805115610601576000906102dc81516141ec565b936000925b825184101561033e576103226001916103056102fd8787614101565b51151561421e565b61031c600d546103158888614101565b51906140cb565b906147a3565b93600c82815480610333858c614101565b5201905501926102e1565b9093925061036f7f0000000000000000000000000000000000000000000000000000000000000000913033846156ff565b60405161037b81613c97565b6000815261038a331515615748565b6103978651845114614ea5565b6103a2838733615c3b565b60005b86518110156103f057806103bb60019286614101565b516103c6828a614101565b5160005282875260406000203360005287526103e860406000209182546147a3565b9055016103a5565b508594604051600033917f4a39dc06d4c0dbc64b70af90fd698a233a518aa5d07e595d983b8c0526c8f7fb3391806104298a8d83614fbb565b0390a484333b6104cb575b50505060005b84518110156104c9578061045060019287614101565b5161046d84600d926104678454610315878b614101565b9061579e565b6104778288614101565b51906104936104868488614101565b5191546103158589614101565b604051918252878201527f10546b1a6f5245ff0ffa18c256b9e46859c585cbb473b453fcd4c2dc39ae08db60403392a30161043a565b005b60405163bc197c8160e01b8082523360048301526000602483015260a06044830152939092839182916105279161051861050860a486018e613e16565b838682030160648701528b613e16565b91848303016084850152613c0c565b03816000335af1600091816105d2575b506105a25784610545615e6b565b6308c379a01461056d575b60405162461bcd60e51b81528061056960048201615ef7565b0390fd5b610575615e89565b90816105815750610550565b61056960405192839262461bcd60e51b845260048401526024830190613c0c565b6001600160e01b031916036105b957848084610434565b60405162461bcd60e51b81528061056960048201615e22565b6105f3919250863d88116105fa575b6105eb8183613cb2565b810190615e02565b9087610537565b503d6105e1565b60405162461bcd60e51b815260048101839052601d60248201527f416d6f756e74732061727261792063616e6e6f7420626520656d7074790000006044820152606490fd5b600080fd5b34610646576020366003190112610646573360009081526000805160206169d583398151915260205260409020546106859060ff16613f8d565b600435600d55005b34610646576040366003190112610646576106a6613e9c565b6106ae613b23565b3360009081526000805160206169d583398151915260209081526040909120549192916106dd9060ff16613f8d565b600080516020616a75833981519152805460601c936001600160a01b0381169390919084156108ca576001600160601b0316916107d083116108855760601b6001600160601b03191682179055604080519182528282018490527f410d007abb80c65964518a8b4f3007c4b354d36d7cfb908d3e3fa6411506e27491a181830361076357005b7f797343f8d6a29aafeb3aaf0910a8973e0081c60c2f6c1f775cd9f76ea348fc1e928360005260008252604060002081600052825260ff60406000205416610816575b508260005260008152604060002082600052815260ff60406000205416156107ca57005b826000526000815260406000209082600052526040600020600160ff1982541617905533917f2f8788117e7eff1d82e926ec794901d17c78024a50270940304540a733656f0d600080a4005b8360005260008252604060002081600052825260ff60406000205416156107a65783600052600082526040600020816000528252604060002060ff1981541690553390847ff6391f5c32d9c69d2a47ea670b442974b53935d1edc7fd64eb21e047a839171b600080a4836107a6565b60405162461bcd60e51b815260048101859052601c60248201527f506c6174666f726d20636f6d6d697373696f6e20746f6f2068696768000000006044820152606490fd5b60405162461bcd60e51b815260048101859052601860248201527f496e76616c696420706c6174666f726d206164647265737300000000000000006044820152606490fd5b346106465760a036600319011261064657610928613b0d565b610930613b23565b90608435916001600160401b038311610646576109546104c9933690600401613d9c565b916064359160443591614373565b346106465760403660031901126106465761097b613b0d565b610983613b23565b9060018060a01b03809116600052600260205260406000209116600052602052602060ff604060002054166040519015158152f35b34610646576109c636613bb6565b3360009081526000805160206169d5833981519152602090815260409091205490939290600080516020616a1583398151915290610a069060ff16613f8d565b60405190632474521560e21b825260048201523360248201528481604481305afa908115610bb157600091610b84575b5015610b4657826000527f1aa44fcb526383bd2f7c6231f8c09a41edc5b654966336907d6f785a5b3d2893808552610a716040600020614866565b6000946000905b848210610ace57505050610aba6127106001600160601b037fcacd6190ee2ad101cd34b99d8fbaf3cdcda816ef83aaa4759f111ba1c416e620959616146154f1565b610ac96040519283928361498a565b0390a2005b9195909190600190610b1b90610b006001600160a01b03610af8610af3888b8b61489e565b6148ae565b1615156148c2565b610b1584610b0f878a8a61489e565b01614901565b90614915565b9286600052878352610b3c6040600020610b3683898961489e565b90614930565b0190959195610a78565b60405162461bcd60e51b815260206004820152601660248201527521b0b63632b91034b9903737ba1030b71037bbb732b960511b6044820152606490fd5b610ba49150853d8711610baa575b610b9c8183613cb2565b81019061484e565b85610a36565b503d610b92565b6040513d6000823e3d90fd5b34610646576000366003190112610646576020604051600080516020616a158339815191528152f35b34610646576000366003190112610646576020600080516020616a758339815191525460601c604051908152f35b34610646576040366003190112610646576104c9600435610c33613b23565b90806000526000602052610c4e600160406000200154614fe0565b6153be565b3461064657610c6136613c31565b90610c6a6147dc565b610c748333613eb2565b15610ff857801515610c85816142b6565b82151592610c9284614315565b610c9a614ba0565b50610cae610ca986600461691b565b614bcb565b846000526000805160206169f5833981519152602052610cd16040600020614c0e565b93608085015115610fb357610d2290610d1d60018060a01b0387511694886000526000805160206169f5833981519152602052610d1860ff600460406000200154166156bd565b6142b6565b614315565b60008581526000805160206169f583398151915260205260409020546001600160a01b03168203610f5e577fb4cfe1d8ea70adf14096f94f362b2c5a7d7e75a5308460ff461b34288fb2df7292610e04604093600080516020616a7583398151915290612710610d9c6001600160601b03845416876140cb565b0489610da88288613f94565b93610dd58830337f00000000000000000000000000000000000000000000000000000000000000006156ff565b82610ef8575b5050507f0000000000000000000000000000000000000000000000000000000000000000615a66565b856000526000805160206169f5833981519152602052610e2c600284600020019182546147a3565b9055846000526000805160206169f583398151915260205260038260002001610e568282546147a3565b9055846000526000805160206169f583398151915260205260028260002001548251908152857f43ed7a287a535d13f2389230befff1329b7724a3890189bb8727976119e6c6c360203393a3610eaa614ba0565b50610eb9610ca986600461691b565b846000526000805160206169f583398151915260205281610edc81600020614c0e565b9460018060a01b039051169401519082519182526020820152a3005b602081610f4b857f2a0edbc96cbdf959b1243e79c51b9bb83b7867279441dc220825d561c2fbb2c6945460601c7f0000000000000000000000000000000000000000000000000000000000000000615a66565b5460601c938a51908152a3898981610ddb565b60405162461bcd60e51b815260206004820152602760248201527f4f6e6c792072656e7465722063616e20657874656e642072656e74616c2028456044820152665243313135352960c81b6064820152608490fd5b60405162461bcd60e51b815260206004820152601d60248201527f546f6b656e206973206e6f742063757272656e746c792072656e7465640000006044820152606490fd5b606460405162461bcd60e51b815260206004820152602060248201527f4d757374206f776e20746f6b656e7320746f20657874656e642072656e74616c6044820152fd5b346106465760203660031901126106465760043560005260046020526020604060002054604051908152f35b346106465760003660031901126106465760206040517f3b652633b3026fa70803ad50b58b0ae884cefe3497643f62c67c466f41a6e88d8152f35b346106465760006110b336613c4b565b6110bb6147dc565b6110c681151561421e565b6110db816110d48433613eb2565b101561426a565b6110e53383615558565b6110f033151561560d565b61111a6110fc83616059565b61110583616059565b908560405161111381613c97565b5233615aa2565b81835260016020526040832033845260205280604084205461113e82821015615665565b838552600160205260408520338652602052036040842055604051918252602082015233907fc3d58168c5ae7397731d063d5bbf3d657854427343f4c083240f7aacaa2d0f6260403392a46104c9604051613c97565b34610646576020366003190112610646576111ad6147dc565b6004356000526000805160206169f5833981519152602052602060ff600460406000200154166040519015158152f35b34610646576040366003190112610646576111f6613b0d565b6024359081151590818303610646576001600160a01b031691338314611273576112459033600052600260205260406000208460005260205260406000209060ff801983541691151516179055565b6040519081527f17307eab39ab6107e8899845ad3d59bd9653f200f220920489ca2b5937696c3160203392a3005b60405162461bcd60e51b815260206004820152602960248201527f455243313135353a2073657474696e6720617070726f76616c20737461747573604482015268103337b91039b2b63360b91b6064820152608490fd5b3461064657600036600319011261064657602060405160008152f35b3461064657602080600319360112610646576004356113036147dc565b61130e81151561421e565b61131a81600d546140cb565b7f000000000000000000000000000000000000000000000000000000000000000092611348823033876156ff565b600c549360018501600c5560405161135f81613c97565b6000815261136e331515615748565b61138a61137a87616059565b61138387616059565b9033615c3b565b8560005260018352604060002033600052835260406000206113ad8682546147a3565b90556040518681528584820152600033917fc3d58168c5ae7397731d063d5bbf3d657854427343f4c083240f7aacaa2d0f6260403392a4333b611428575b506113f790838661579e565b6040519283528201527f10546b1a6f5245ff0ffa18c256b9e46859c585cbb473b453fcd4c2dc39ae08db60403392a3005b604095949392955186818061146c63f23a6e6160e01b95868352336004840152600060248401528a604484015289606484015260a0608484015260a4830190613c0c565b03816000335af1600091816114a5575b5061148a5786610545615e6b565b63ffffffff60e097949596971b16036105b9576113f76113eb565b6114bd919250883d8a116105fa576105eb8183613cb2565b908861147c565b3461064657602080600319360112610646576114de613e9c565b600080516020616a158339815191528060005260008352604060002033600052835261151160ff60406000205416613f8d565b60405190632474521560e21b825260048201523360248201528281604481305afa908115610bb1576000916115e8575b5015610b46576001600160601b031690610bb882116115a457600080516020616a3583398151915280546001600160601b031916831790556040519182527f8df4d6c1a5c8e6c4d7a71d760d42122503a5244aeab98f2ff8e3244be07a44e391a1005b6064906040519062461bcd60e51b82526004820152601b60248201527f526f79616c74792070657263656e7461676520746f6f206869676800000000006044820152fd5b6115ff9150833d8511610baa57610b9c8183613cb2565b83611541565b346106465760208060031936011261064657600435906116236147dc565b61162b614ba0565b5061163a610ca983600461691b565b816000526000805160206169f58339815191529081815261165e6040600020614c0e565b6116688433613eb2565b15801590611809575b156117b1576116808433613eb2565b156117a05733925b846000528083526116a360ff600460406000200154166156bd565b600085815281845260409020546001600160a01b0393908416330361175c57856000525281604060002093600482865416950160ff198154169055169283857fdfd6ab3fc2a0e563c3389917592f1a850824730b5f05f16be9363c4adfc268da600080a461171b828251166117166147dc565b613fb7565b1561174b575b5116907f2701fe1dc0d516a6094695be18e9b34a36ac386ec7694aec82980be40e1a9fc0600080a4005b61175782825116615312565b611721565b6064906040519062461bcd60e51b82526004820152601a60248201527f4f6e6c792072656e7465722063616e20656e642072656e74616c0000000000006044820152fd5b80516001600160a01b031692611688565b60405162461bcd60e51b815260048101839052602a60248201527f4d757374206f776e20746f6b656e73206f722062652072656e74657220746f20604482015269195b99081c995b9d185b60b21b6064820152608490fd5b5080516001600160a01b03163314611671565b613e4a565b346106465760403660031901126106465761183a613b23565b600435600052600060205260406000209060018060a01b0316600052602052602060ff604060002054166040519015158152f35b346106465760203660031901126106465760405162461bcd60e51b815260206004820152602560248201527f746f6b656e4279496e646578206e6f7420737570706f7274656420696e204552604482015264433131353560d81b6064820152608490fd5b346106465760003660031901126106465760206001600160601b03600080516020616a358339815191525416604051908152f35b34610646576000366003190112610646573360009081526000805160206169d583398151915260205260409020546119409060ff16613f8d565b6119486147dc565b600160ff1960075416176007557f62e78cea01bee320cd4e420270b5ea74000d11b0c9f74754ebdbfc544b05a2586020604051338152a1005b34610646576040366003190112610646576001600160401b03600435818111610646576119b2903690600401613cea565b90602435908111610646576119cb903690600401613cea565b6119d36147dc565b8151815103611b6357815115611b255760005b8251811015611a4257806119ff6102fd60019385614101565b611a28611a16611a0f8387614101565b5133613eb2565b611a208386614101565b51111561426a565b611a3c33611a368387614101565b51615558565b016119e6565b50611a4e33151561560d565b611a5b8251825114614ea5565b6000604051611a6981613c97565b52611a75818333615aa2565b60005b8251811015611ae15780611a8e60019285614101565b51611a998285614101565b51908060005283602090808252604060002033600052825260406000205492611ac485851015615665565b600052815260406000209033600052520360406000205501611a78565b506000917f4a39dc06d4c0dbc64b70af90fd698a233a518aa5d07e595d983b8c0526c8f7fb60405180611b173395339583614fbb565b0390a46104c9604051613c97565b60405162461bcd60e51b81526020600482015260166024820152754172726179732063616e6e6f7420626520656d70747960501b6044820152606490fd5b60405162461bcd60e51b8152602060048201526016602482015275082e4e4c2f2e640d8cadccee8d040dad2e6dac2e8c6d60531b6044820152606490fd5b613e7e565b3461064657602036600319011261064657602060405160008152f35b3461064657608036600319011261064657611bdb613b0d565b60243590604435606435611bed6147dc565b6001600160a01b038316928315611dcc57611c0983151561421e565b611c14821515613f37565b611c22836110d48733613eb2565b611d9b7f00000000000000000000000000000000000000000000000000000000000000009186600052611cde6020936000805160206169f58339815191528552611c7760ff6004604060002001541615614b54565b611cb56001600160601b03611c9d81600080516020616a358339815191525416896140cb565b50600080516020616a758339815191525416876140cb565b50611cc2863085846156ff565b611cd6611cd082888c6158ef565b87613f94565b903390615a66565b60405183810190611d0481611cf68886338e88614820565b03601f198101835282613cb2565b519020600052600080516020616a5583398151915283526040600020600160ff198254161790557f6b770677edae0e90cca492948fa872f24dbe9c82ebeb8d39118b033a5e1bd3e283528360406000205585604051858152887f3d5eb834b5d6cadc063c171c3f25f60bca8ea892ba9db25342278927d0af9556863393a4848760405192611d9184613c97565b6000845233614373565b6040519283528201527f9387a595ac4be9038bbb9751abad8baa3dcf219dd9e19abb81552bd521fe354660403392a4005b60405162461bcd60e51b815260206004820152601b60248201527f43616e6e6f742073656c6c20746f207a65726f206164647265737300000000006044820152606490fd5b346106465760003660031901126106465760206040517f797343f8d6a29aafeb3aaf0910a8973e0081c60c2f6c1f775cd9f76ea348fc1e8152f35b34610646576000366003190112610646576020600d54604051908152f35b3461064657602080600319360112610646576004356001600160401b03811161064657611e9b903690600401613b86565b90600080516020616a1583398151915280600052600084526040600020336000528452611ecf60ff60406000205416613f8d565b60405190632474521560e21b825260048201526024903360248201528481604481305afa908115610bb1576000916120ae575b5015610b46577f1aa44fcb526383bd2f7c6231f8c09a41edc5b654966336907d6f785a5b3d2891908154600083558061206b575b5060009460005b858110611f91577fbb8446bab3f849e18e51a7f88d964208275772e34ae7283ced4d1850f2a6248b8686611f7d6127106001600160601b038c16146154f1565b611f8c6040519283928361498a565b0390a1005b6001600160a01b0396611fbf90611fb089610af8610af3868c8c61489e565b610b1584610b0f858b8b61489e565b96611fcb82888861489e565b855491600160401b83101561205657600183018088558310156120415790600193929187600052611ffb826148ae565b16906001600160a01b031990612012908701614901565b60a01b1617907fa4041d101acf3009d39ef8ac90ad14bf6c598ff2cd8eba13e657a61f9865a1ee015501611f3d565b85634e487b7160e01b60005260326004526000fd5b85634e487b7160e01b60005260416004526000fd5b826000527fa4041d101acf3009d39ef8ac90ad14bf6c598ff2cd8eba13e657a61f9865a1ee908101905b8181106120a25750611f36565b60008155600101612095565b6120c59150853d8711610baa57610b9c8183613cb2565b85611f02565b34610646576020366003190112610646576120f66120ea600435614da2565b60405191829182613dba565b0390f35b3461064657600036600319011261064657602060ff600754166040519015158152f35b3461064657602080600319360112610646576001600160401b03600435818111610646573660238201121561064657612160903690602481600401359101613d65565b91600080516020616a1583398151915260005260008152604060002033600052815261219360ff60406000205416613f8d565b82519182116122d1576121a7600e54613fed565b601f811161226d575b5080601f83116001146121ec575081926000926121e1575b5050600019600383901b1c191660019190911b17600e55005b0151905082806121c8565b90601f19831693600e6000527fbb7b4a454dc3493923482f07822329ed19e8244eff582cc204f8554c3620c3fd926000905b868210612255575050836001951061223c575b505050811b01600e55005b015160001960f88460031b161c19169055828080612231565b8060018596829496860151815501950193019061221e565b600e6000527fbb7b4a454dc3493923482f07822329ed19e8244eff582cc204f8554c3620c3fd601f840160051c8101918385106122c7575b601f0160051c01905b8181106122bb57506121b0565b600081556001016122ae565b90915081906122a5565b634e487b7160e01b600052604160045260246000fd5b346106465760203660031901126106465760206123136004356000526004602052604060002054151590565b6040519015158152f35b34610646576040366003190112610646576004356001600160401b0380821161064657366023830112156106465781600401359061235a82613cd3565b926123686040519485613cb2565b82845260209260248486019160051b83010191368311610646576024859101915b8383106124765750505050602435908111610646576123ac903690600401613cea565b825181510361241f576123bf83516141ec565b9260005b8151811015612408576001906123f76001600160a01b036123e48386614101565b51166123f08387614101565b5190613eb2565b6124018288614101565b52016123c3565b5050506120f6604051928284938452830190613e16565b60405162461bcd60e51b815260048101839052602960248201527f455243313135353a206163636f756e747320616e6420696473206c656e677468604482015268040dad2e6dac2e8c6d60bb1b6064820152608490fd5b819061248184613b39565b8152019101908490612389565b3461064657602080600319360112610646576004356001600160401b038111610646576124bf903690600401613b86565b90600080516020616a15833981519152806000526000845260406000203360005284526124f360ff60406000205416613f8d565b60405190632474521560e21b825260048201526024903360248201528481604481305afa908115610bb157600091612727575b5015610b46577f1aa44fcb526383bd2f7c6231f8c09a41edc5b654966336907d6f785a5b3d2890805460008255806126e4575b5060009160005b85811061260a575050506001600160601b036127109116036125ae577f89bf541e521f4acc4850978648c2c61d31963c71ae31181f246302f902941d709250611f8c6040519283928361498a565b60405162461bcd60e51b815260048101849052602e60248201527f546f74616c206d696e7420726f79616c74792070657263656e7461676573206d60448201526d75737420657175616c203130302560901b6064820152608490fd5b6001600160a01b03936126389061262986610af8610af3868c8c61489e565b610b1589610b0f858b8b61489e565b9361264482888861489e565b845491600160401b8310156126cf57600183018087558310156126ba5790600193929186600052612674826148ae565b16906001600160a01b03199061268b908c01614901565b60a01b1617907fda8fae54e8f39a93d00f604d8561e99df7ed8f0c7e4aac42d41ab365ccba74c8015501612560565b84634e487b7160e01b60005260326004526000fd5b84634e487b7160e01b60005260416004526000fd5b816000527fda8fae54e8f39a93d00f604d8561e99df7ed8f0c7e4aac42d41ab365ccba74c8908101905b81811061271b5750612559565b6000815560010161270e565b61273e9150853d8711610baa57610b9c8183613cb2565b85612526565b34610646576020366003190112610646576120f66120ea6004356153ee565b34610646576000366003190112610646573360009081526000805160206169d5833981519152602052604090205461279d9060ff16613f8d565b60075460ff8116156127dc5760ff19166007557f5db9ee0a495bf2e6ff9c91a7834c1ba4fdd244a5e8aa4e537bd38aeae4b073aa6020604051338152a1005b60405162461bcd60e51b815260206004820152601460248201527314185d5cd8589b194e881b9bdd081c185d5cd95960621b6044820152606490fd5b3461064657604036600319011261064657612831613b23565b336001600160a01b0382160361284d576104c9906004356153be565b60405162461bcd60e51b815260206004820152602f60248201527f416363657373436f6e74726f6c3a2063616e206f6e6c792072656e6f756e636560448201526e103937b632b9903337b91039b2b63360891b6064820152608490fd5b34610646576000366003190112610646576040517f00000000000000000000000000000000000000000000000000000000000000006001600160a01b03168152602090f35b346106465760403660031901126106465760043561290b613b23565b816000526000602052612925600160406000200154614fe0565b81600052600060205260406000209060018060a01b0316908160005260205260ff604060002054161561295457005b8160005260006020526040600020816000526020526040600020600160ff1982541617905533917f2f8788117e7eff1d82e926ec794901d17c78024a50270940304540a733656f0d600080a4005b346106465760a0366003190112610646576129bb613b0d565b6129c3613b23565b6001600160401b0390604435828111610646576129e4903690600401613cea565b606435838111610646576129fc903690600401613cea565b9260843590811161064657612a15903690600401613d9c565b6001600160a01b03851633148015612e71575b612a3190614189565b612a3e8251855114614ea5565b612a526001600160a01b0384161515614f02565b6001600160a01b03851615612e1e575b6001600160a01b03831615612d69575b60005b8251811015612b4a5780612adb8588612a9060019588614101565b51806000526000805160206169f583398151915260205260ff60046040600020015416612aea575b858060a01b03821615600014612ae157612ad660005b84848461649c565b61682f565b01612a75565b612ad633612ace565b612af381614c58565b6080810151151580612b3c575b612b0b575b50612ab8565b612b1f878060a01b038251166117166147dc565b15612b0557612b3690878060a01b03905116615312565b8b612b05565b506040810151421015612b00565b5092919060005b8151811015612bf35780612b6760019284614101565b51612b728287614101565b519080600052836020918183526040600020868060a01b038c16600052835283604060002054612ba482821015614f5c565b8260005283855260406000208d898060a01b03166000528552036040600020556000528152604060002090848060a01b03871660005252612beb60406000209182546147a3565b905501612b51565b5060405190939291906001600160a01b03808316919087169033907f4a39dc06d4c0dbc64b70af90fd698a233a518aa5d07e595d983b8c0526c8f7fb9080612c3c888b83614fbb565b0390a4803b612c4757005b60405163bc197c8160e01b8082523360048301526001600160a01b03909616602482015260a0604482015293602093859384926000928492612cba92612ca89190612c969060a4870190613e16565b85810360031901606487015290613e16565b83810360031901608485015290613c0c565b03926001600160a01b03165af160009181612d48575b50612d3757612cdd615e6b565b6308c379a014612d005760405162461bcd60e51b81528061056960048201615ef7565b612d08615e89565b80612d135750610550565b60405162461bcd60e51b815260206004820152908190610569906024830190613c0c565b6001600160e01b031916036105b957005b612d6291925060203d6020116105fa576105eb8183613cb2565b9083612cd0565b9293909160005b8351811015612e1457612d838185614101565b5190612d8f8188614101565b51826000526004602052604060002054818110612dbe5760019360005260046020520360406000205501612d70565b60405162461bcd60e51b815260206004820152602860248201527f455243313135353a206275726e20616d6f756e74206578636565647320746f74604482015267616c537570706c7960c01b6064820152608490fd5b5091909392612a72565b9293909160005b8351811015612e675780612e3b60019288614101565b51612e468287614101565b516000526004602052612e5f60406000209182546147a3565b905501612e25565b5091909392612a62565b506001600160a01b038516600090815260026020908152604080832033845290915290205460ff16612a28565b3461064657612eb5612eaf36613c4b565b90614115565b604080516001600160a01b03939093168352602083019190915290f35b3461064657602036600319011261064657600435612eee6147dc565b612ef6614ba0565b50612f05610ca982600461691b565b6000526000805160206169f583398151915260205260a0612f296040600020614c0e565b600180831b03815116906020810151906040810151608060608301519201511515926040519485526020850152604084015260608301526080820152f35b346106465760203660031901126106465760043560005260006020526020600160406000200154604051908152f35b3461064657612fc0611cf6612faa36613b4d565b6040516020810196909590948694919388614820565b5190206000527f6b770677edae0e90cca492948fa872f24dbe9c82ebeb8d39118b033a5e1bd3df602052602060ff604060002054166040519015158152f35b346106465761300d36613c31565b906130166147dc565b6130208333613eb2565b156133a8578015613363578115159061303882614073565b7f000000000000000000000000000000000000000000000000000000000000000090846000526000805160206169f58339815191529160209383855260ff6004604060002001541661331e5761317b92916130956130e792614073565b600080516020616a75833981519152906127106130bc6001600160601b038454168a6140cb565b04896130c8828b613f94565b936130d58b3033876156ff565b89836132d8575b505050503390615a66565b6131756130f482426147a3565b60046040519161310383613c61565b338352878301904282526040840190815260608401908a82526080850192600184528c600052898b5260406000209560018060a01b039051166001600160601b0360a01b87541617865551600186015551600285015551600384015551151591019060ff801983541691151516179055565b426147a3565b60405190857f61619ae64b505b7a930ddc60df40a5c2746b1778b429ddb19ff5236f28ba83b13393806131c289339642846040919493926060820195825260208201520152565b0390a47f3b652633b3026fa70803ad50b58b0ae884cefe3497643f62c67c466f41a6e88d8060005260008352604060002033600052835260ff6040600020541615613286575b50613211614ba0565b50613220610ca985600461691b565b8360005281527f91ed440ea126ed5a21dfd1e9ad850a40d87c795aa239d6d1a8967347bee99790613281604061325881600020614c0e565b938401519301519360405191829133963396846040919493926060820195825260208201520152565b0390a4005b806000526000835260406000203360005283526040600020600160ff19825416179055339033907f2f8788117e7eff1d82e926ec794901d17c78024a50270940304540a733656f0d600080a484613208565b81613309857f2a0edbc96cbdf959b1243e79c51b9bb83b7867279441dc220825d561c2fbb2c6945460601c88615a66565b5460601c93604051908152a3898981896130dc565b60405162461bcd60e51b815260048101869052601760248201527f546f6b656e20697320616c72656164792072656e7465640000000000000000006044820152606490fd5b60405162461bcd60e51b815260206004820152601f60248201527f4475726174696f6e206d7573742062652067726561746572207468616e2030006044820152606490fd5b60405162461bcd60e51b815260206004820152601760248201527f4d757374206f776e20746f6b656e7320746f2072656e740000000000000000006044820152606490fd5b3461064657606036600319011261064657613406613b0d565b6044356024356134146147dc565b6001600160a01b0383169283151561342b81614027565b6134358333613eb2565b156135245761347990613449851515613f37565b836000526000805160206169f583398151915260205261347460ff6004604060002001541615614b54565b614027565b60405161349181611cf6866020830195338888614820565b5190206000527f6b770677edae0e90cca492948fa872f24dbe9c82ebeb8d39118b033a5e1bd3df6020526040600020600160ff198254161790557f6b770677edae0e90cca492948fa872f24dbe9c82ebeb8d39118b033a5e1bd3e0602052816040600020556040519182527f3c03dadf3cda1d8a0b15eaf862e12cdc0dabbcdd0f5f87342a0c10793a056a8b60203393a4005b60405162461bcd60e51b815260206004820152601b60248201527f4d757374206f776e20746f6b656e7320746f207472616e7366657200000000006044820152606490fd5b346106465760208060031936011261064657613586600435614a94565b906040519182826000600e5461359b81613fed565b9060019081811690811561364757506001146135ea575b50506135c784826135d6965194859201613be9565b0103601f198101845283613cb2565b6120f6604051928284938452830190613c0c565b600e60009081529192507fbb7b4a454dc3493923482f07822329ed19e8244eff582cc204f8554c3620c3fd5b83831061362f57505050820181016135c76135d66135b2565b8054838a018601528895508794909201918101613616565b60ff1916868601525050801515028301820190506135c76135d66135b2565b34610646576020366003190112610646576020612313613684613b0d565b6117166147dc565b346106465761369a36613bb6565b3360009081526000805160206169d5833981519152602090815260409091205490939290600080516020616a15833981519152906136da9060ff16613f8d565b60405190632474521560e21b825260048201523360248201528481604481305afa908115610bb15760009161384e575b5015610b4657826000527f1aa44fcb526383bd2f7c6231f8c09a41edc5b654966336907d6f785a5b3d28928085526137456040600020614866565b6000906000905b8482106137fb5750506001600160601b0361271091160361379957907faaf4e53c3b98ff4419060c1d6732d9fdaf27c8d404b09e9b4049b6442b71e8b591610ac96040519283928361498a565b60405162461bcd60e51b815260048101859052603460248201527f546f74616c20746f6b656e206d696e7420726f79616c74792070657263656e7460448201527361676573206d75737420657175616c203130302560601b6064820152608490fd5b909160019061382c9061381d6001600160a01b03610af8610af3888b8b61489e565b610b1589610b0f878a8a61489e565b92866000528288526138476040600020610b3683898961489e565b019061374c565b6138659150853d8711610baa57610b9c8183613cb2565b8561370a565b346106465761387936613b4d565b92916138836147dc565b6001600160a01b03838116939084156139e55782169485156139a0577f771e304e88a13ffdb75cacc5fbef9827e376630b3548262bab37c8325715aec4926139596020936138d2841515613f37565b7f000000000000000000000000000000000000000000000000000000000000000090613900853033856156ff565b61393e6001600160601b0361392681600080516020616a358339815191525416886140cb565b50600080516020616a758339815191525416866140cb565b5061395361394d83878b6158ef565b86613f94565b91615a66565b60405161397081611cf68587830195338b88614820565b519020600052600080516020616a5583398151915282526040600020600160ff19825416179055604051908152a4005b60405162461bcd60e51b815260206004820152601c60248201527f42757965722063616e6e6f74206265207a65726f2061646472657373000000006044820152606490fd5b60405162461bcd60e51b815260206004820152601d60248201527f53656c6c65722063616e6e6f74206265207a65726f20616464726573730000006044820152606490fd5b34610646576020366003190112610646576004356001600160e01b0319811680820361064657602091636cdb3d1360e11b82148015613ace575b8015613abf575b80928115613a98575b50508115613a88575b506040519015158152f35b613a9291506147b0565b82613a7d565b91925063152a902d60e11b909114908115613ab7575b50908380613a74565b905083613aae565b50613ac9816147b0565b613a6b565b506303a24d0760e21b8214613a64565b34610646576040366003190112610646576020613b05613afc613b0d565b60243590613eb2565b604051908152f35b600435906001600160a01b038216820361064657565b602435906001600160a01b038216820361064657565b35906001600160a01b038216820361064657565b6080906003190112610646576001600160a01b039060043582811681036106465791602435908116810361064657906044359060643590565b9181601f84011215610646578235916001600160401b038311610646576020808501948460061b01011161064657565b9060406003198301126106465760043591602435906001600160401b03821161064657613be591600401613b86565b9091565b60005b838110613bfc5750506000910152565b8181015183820152602001613bec565b90602091613c2581518092818552858086019101613be9565b601f01601f1916010190565b606090600319011261064657600435906024359060443590565b6040906003190112610646576004359060243590565b60a081019081106001600160401b038211176122d157604052565b604081019081106001600160401b038211176122d157604052565b602081019081106001600160401b038211176122d157604052565b90601f801991011681019081106001600160401b038211176122d157604052565b6001600160401b0381116122d15760051b60200190565b9080601f83011215610646576020908235613d0481613cd3565b93613d126040519586613cb2565b81855260208086019260051b82010192831161064657602001905b828210613d3b575050505090565b81358152908301908301613d2d565b6001600160401b0381116122d157601f01601f191660200190565b929192613d7182613d4a565b91613d7f6040519384613cb2565b829481845281830111610646578281602093846000960137010152565b9080601f8301121561064657816020613db793359101613d65565b90565b60208082019080835283518092528060408094019401926000905b838210613de457505050505090565b845180516001600160a01b031687528301516001600160601b0316868401529485019493820193600190910190613dd5565b90815180825260208080930193019160005b828110613e36575050505090565b835185529381019392810192600101613e28565b346106465760003660031901126106465760206001600160601b03600080516020616a758339815191525416604051908152f35b34610646576000366003190112610646576020600c54604051908152f35b600435906001600160601b038216820361064657565b6001600160a01b0316908115613edf57600052600160205260406000209060005260205260406000205490565b60405162461bcd60e51b815260206004820152602a60248201527f455243313135353a2061646472657373207a65726f206973206e6f742061207660448201526930b634b21037bbb732b960b11b6064820152608490fd5b15613f3e57565b60405162461bcd60e51b815260206004820152602160248201527f53616c65207072696365206d7573742062652067726561746572207468616e206044820152600360fc1b6064820152608490fd5b15610b4657565b91908203918211613fa157565b634e487b7160e01b600052601160045260246000fd5b600c548015613fe6576000198101908111613fa1576002613db7926000805160206169f5833981519152614a0c565b5050600090565b90600182811c9216801561401d575b602083101461400757565b634e487b7160e01b600052602260045260246000fd5b91607f1691613ffc565b1561402e57565b60405162461bcd60e51b815260206004820152601f60248201527f43616e6e6f74207472616e7366657220746f207a65726f2061646472657373006044820152606490fd5b1561407a57565b60405162461bcd60e51b815260206004820152602360248201527f52656e74616c207072696365206d75737420626520677265617465722074686160448201526206e20360ec1b6064820152608490fd5b81810292918115918404141715613fa157565b8051156140eb5760200190565b634e487b7160e01b600052603260045260246000fd5b80518210156140eb5760209160051b010190565b9190916127109061414b826141446001600160601b039687600080516020616a358339815191525416906140cb565b0491614da2565b805161415e575050509050600090600090565b9061416b614179926140de565b5194602086015116906140cb565b92516001600160a01b0316920490565b1561419057565b60405162461bcd60e51b815260206004820152602e60248201527f455243313135353a2063616c6c6572206973206e6f7420746f6b656e206f776e60448201526d195c881bdc88185c1c1c9bdd995960921b6064820152608490fd5b906141f682613cd3565b6142036040519182613cb2565b8281528092614214601f1991613cd3565b0190602036910137565b1561422557565b60405162461bcd60e51b815260206004820152601d60248201527f416d6f756e74206d7573742062652067726561746572207468616e20300000006044820152606490fd5b1561427157565b60405162461bcd60e51b815260206004820152601a60248201527f496e73756666696369656e7420746f6b656e2062616c616e63650000000000006044820152606490fd5b156142bd57565b60405162461bcd60e51b815260206004820152602a60248201527f4164646974696f6e616c206475726174696f6e206d75737420626520677265616044820152690746572207468616e20360b41b6064820152608490fd5b1561431c57565b60405162461bcd60e51b815260206004820152602960248201527f4164646974696f6e616c207061796d656e74206d75737420626520677265617460448201526806572207468616e20360bc1b6064820152608490fd5b929490936001600160a01b0392909183851691338314801561477a575b61439990614189565b848716928315946143aa8615614f02565b6143b383616059565b946143bd8b616059565b83159788614712575b614645575b5060005b8651811015614482578061442a8c8c6143ea6001958c614101565b51806000526000805160206169f58339815191526020528d60409060ff600483600020015416614430575b50508c15612ae157612ad6600084848461649c565b016143cf565b61443983614c58565b91608083015115159081614474575b50156144155761445d818351166117166147dc565b156144155761446d915116615312565b388e614415565b905082015142101538614448565b509450945094509450958460005260209460018652604096876000208660005287528288600020546144b682821015614f5c565b836000526001895289600020886000528952038860002055816000526001875287600020846000528752876000206144ef8482546147a3565b905583868951848152858a8201527fc3d58168c5ae7397731d063d5bbf3d657854427343f4c083240f7aacaa2d0f628b3392a43b614531575b50505050505050565b916145799391600087989997948a519687958694859363f23a6e6160e01b9b8c865233600487015260248601526044850152606484015260a0608484015260a4830190613c0c565b03925af160009181614626575b506145ed57505050614596615e6b565b6308c379a0146145b9575b505162461bcd60e51b81528061056960048201615ef7565b6145c1615e89565b90816145cd57506145a1565b610569835192839262461bcd60e51b845260048401526024830190613c0c565b919392506001600160e01b03199091160361460f575038808080808080614528565b5162461bcd60e51b81528061056960048201615e22565b61463e919250853d87116105fa576105eb8183613cb2565b9038614586565b9a979492909996939160009996995b8a518110156146fe578c6146738261466c818f614101565b5192614101565b51816000526004916020928084526040938460002054928484106146aa579060019695949392916000525203906000205501614654565b855162461bcd60e51b8152808401839052602860248201527f455243313135353a206275726e20616d6f756e74206578636565647320746f74604482015267616c537570706c7960c01b6064820152608490fd5b5091939699909294979a50979497386143cb565b9a9699959260009c98949199959260005b8c5181101561476757808f61475f8f918f9061474e85614747600198604095614101565b5195614101565b5181526004602052209182546147a3565b905501614723565b509295999194989c50929599969a6143c6565b5082600052600260205260406000203360005260205261439960ff604060002054169050614390565b91908201809211613fa157565b63ffffffff60e01b16637965db0b60e01b81149081156147ce575090565b6301ffc9a760e01b14919050565b60ff600754166147e857565b60405162461bcd60e51b815260206004820152601060248201526f14185d5cd8589b194e881c185d5cd95960821b6044820152606490fd5b92606894929184526001600160601b0319809260601b16602085015260601b16603483015260488201520190565b90816020910312610646575180151581036106465790565b805490600090600081558261487a57505050565b6000526020600020918201915b82811061489357505050565b818155600101614887565b91908110156140eb5760061b0190565b356001600160a01b03811681036106465790565b156148c957565b60405162461bcd60e51b815260206004820152601060248201526f24b73b30b634b2103932b1b2b4bb32b960811b6044820152606490fd5b356001600160601b03811681036106465790565b9190916001600160601b0380809416911601918211613fa157565b805490600160401b8210156122d157600182018082558210156140eb5760009081526020902001906001600160a01b03614969826148ae565b16906001600160a01b03199061498190602001614901565b60a01b16179055565b90916020918160208201602083525260408091019392600080915b8483106149b55750505050505090565b90919293949560018060a01b036149cb88613b39565b168152818701356001600160601b0381168091036149f95782820152840195840194939260010191906149a5565b8380fd5b6000198114613fa15760010190565b909160005b84811115614a23575050505050600090565b614a2d818361691b565b614a40575b614a3b906149fd565b614a11565b8060005282602052604060002060ff6004820154169081614a6c575b5015614a32575050505050600190565b546001600160a01b03868116911614905038614a5c565b9081518110156140eb570160200190565b8015614b365780816000925b614b205750614aae82613d4a565b91614abc6040519384613cb2565b80835281601f19614acc83613d4a565b013660208601375b614add57505090565b6000198101908111613fa1578091600a9160308383068101809111613fa15760f81b6001600160f81b03191660001a90614b179086614a83565b53049081614ad4565b9091614b2d600a916149fd565b92910480614aa0565b50604051614b4381613c7c565b60018152600360fc1b602082015290565b15614b5b57565b60405162461bcd60e51b815260206004820152601960248201527f546f6b656e2069732063757272656e746c792072656e746564000000000000006044820152606490fd5b60405190614bad82613c61565b60006080838281528260208201528260408201528260608201520152565b15614bd257565b60405162461bcd60e51b8152602060048201526014602482015273151bdad95b88191bd95cc81b9bdd08195e1a5cdd60621b6044820152606490fd5b90604051614c1b81613c61565b82546001600160a01b0316815260018301546020820152600283015460408201526003830154606082015260049092015460ff1615156080830152565b60806040918251614c6881613c61565b600092818480935282602082015282868201528260608201520152614c8e81600461691b565b15614cf257828260049260ff94526000805160206169f583398151915260205220835193614cbb85613c61565b81546001600160a01b0316855260018201546020860152600282015490850152600381015460608501520154161515608082015290565b825162461bcd60e51b8152602060048201526014602482015273151bdad95b88191bd95cc81b9bdd08195e1a5cdd60621b6044820152606490fd5b908154614d3981613cd3565b92604093614d4a6040519182613cb2565b82815280946020809201926000526020600020906000935b858510614d7157505050505050565b60018481928451614d8181613c7c565b8654848060a01b038116825260a01c83820152815201930194019391614d62565b6000908082527f1aa44fcb526383bd2f7c6231f8c09a41edc5b654966336907d6f785a5b3d28939060208260205260409060408520541515600014614df5575050825260205260409020613db790614d2d565b91509291507f1aa44fcb526383bd2f7c6231f8c09a41edc5b654966336907d6f785a5b3d289190815492614e2884613cd3565b94614e366040519687613cb2565b848652602086019382527fa4041d101acf3009d39ef8ac90ad14bf6c598ff2cd8eba13e657a61f9865a1ee91935b858510614e745750505050505090565b60018481928451614e8481613c7c565b8654848060a01b038116825260a01c83820152815201930194019391614e64565b15614eac57565b60405162461bcd60e51b815260206004820152602860248201527f455243313135353a2069647320616e6420616d6f756e7473206c656e677468206044820152670dad2e6dac2e8c6d60c31b6064820152608490fd5b15614f0957565b60405162461bcd60e51b815260206004820152602560248201527f455243313135353a207472616e7366657220746f20746865207a65726f206164604482015264647265737360d81b6064820152608490fd5b15614f6357565b60405162461bcd60e51b815260206004820152602a60248201527f455243313135353a20696e73756666696369656e742062616c616e636520666f60448201526939103a3930b739b332b960b11b6064820152608490fd5b9091614fd2613db793604084526040840190613e16565b916020818403910152613e16565b600090808252602090828252604092838120338252835260ff8482205416156150095750505050565b8351916001600160401b03903360608501838111868210176152fe578752602a855285850191873684378551156152ea5760308353855191600192600110156152d6576078602188015360295b83811161526c575061522a57908751936080850190858210908211176152165788526042845286840194606036873784511561520257603086538451600110156152025790607860218601536041915b8183116151945750505061515257610569938693615136936151276048946150fe9a519a8b957f416363657373436f6e74726f6c3a206163636f756e74200000000000000000008c8801525180926037880190613be9565b8401917001034b99036b4b9b9b4b733903937b6329607d1b603784015251809386840190613be9565b01036028810187520185613cb2565b5192839262461bcd60e51b845260048401526024830190613c0c565b60648587519062461bcd60e51b825280600483015260248201527f537472696e67733a20686578206c656e67746820696e73756666696369656e746044820152fd5b909192600f811660108110156151ee576f181899199a1a9b1b9c1cb0b131b232b360811b901a6151c48588614a83565b5360041c9280156151da576000190191906150a6565b634e487b7160e01b82526011600452602482fd5b634e487b7160e01b83526032600452602483fd5b634e487b7160e01b81526032600452602490fd5b634e487b7160e01b86526041600452602486fd5b60648789519062461bcd60e51b825280600483015260248201527f537472696e67733a20686578206c656e67746820696e73756666696369656e746044820152fd5b90600f811660108110156152c2576f181899199a1a9b1b9c1cb0b131b232b360811b901a61529a838a614a83565b5360041c9080156152ae5760001901615056565b634e487b7160e01b87526011600452602487fd5b634e487b7160e01b88526032600452602488fd5b634e487b7160e01b86526032600452602486fd5b634e487b7160e01b85526032600452602485fd5b634e487b7160e01b85526041600452602485fd5b6001600160a01b031660008181527f64d20ad6c082d9621149fdda479032d4fb46f976cd92c72281623a586193c3b860205260408120549091907f3b652633b3026fa70803ad50b58b0ae884cefe3497643f62c67c466f41a6e88d9060ff1661537a57505050565b80835282602052604083208284526020526040832060ff1981541690557ff6391f5c32d9c69d2a47ea670b442974b53935d1edc7fd64eb21e047a839171b339380a4565b9060009180835282602052604083209160018060a01b03169182845260205260ff60408420541661537a57505050565b6000908082527f1aa44fcb526383bd2f7c6231f8c09a41edc5b654966336907d6f785a5b3d28929060208260205260409060408520541515600014615441575050825260205260409020613db790614d2d565b91509291507f1aa44fcb526383bd2f7c6231f8c09a41edc5b654966336907d6f785a5b3d28909081549261547484613cd3565b946154826040519687613cb2565b848652602086019382527fda8fae54e8f39a93d00f604d8561e99df7ed8f0c7e4aac42d41ab365ccba74c891935b8585106154c05750505050505090565b600184819284516154d081613c7c565b8654848060a01b038116825260a01c838201528152019301940193916154b0565b156154f857565b60405162461bcd60e51b815260206004820152603260248201527f546f74616c207472616e7366657220726f79616c74792070657263656e7461676044820152716573206d75737420657175616c203130302560701b6064820152608490fd5b90336001600160a01b03909116036155d6576000526000805160206169f583398151915260205260ff6004604060002001541661559157565b60405162461bcd60e51b815260206004820152601a60248201527f43616e6e6f74206275726e20612072656e74656420746f6b656e0000000000006044820152606490fd5b60405162461bcd60e51b815260206004820152600f60248201526e2737ba103a37b5b2b71037bbb732b960891b6044820152606490fd5b1561561457565b60405162461bcd60e51b815260206004820152602360248201527f455243313135353a206275726e2066726f6d20746865207a65726f206164647260448201526265737360e81b6064820152608490fd5b1561566c57565b60405162461bcd60e51b8152602060048201526024808201527f455243313135353a206275726e20616d6f756e7420657863656564732062616c604482015263616e636560e01b6064820152608490fd5b156156c457565b60405162461bcd60e51b8152602060048201526013602482015272151bdad95b881a5cc81b9bdd081c995b9d1959606a1b6044820152606490fd5b6040516323b872dd60e01b60208201526001600160a01b0392831660248201529290911660448301526064808301939093529181526157469161574182613c61565b615f4c565b565b1561574f57565b60405162461bcd60e51b815260206004820152602160248201527f455243313135353a206d696e7420746f20746865207a65726f206164647265736044820152607360f81b6064820152608490fd5b9291600080516020616a75833981519152938454946157e9612710966157e36001600160601b0394896157d38785168a6140cb565b049283806158db575b50506153ee565b95613f94565b9084511515806158d2575b156158b4575060009160005b8551811015615868578761582483602061581a858b614101565b51015116856140cb565b0480615834575b50600101615800565b90936001916158619161585c826001600160a01b036158538a8d614101565b5151168a615a66565b6147a3565b939061582b565b50506158779293949550613f94565b90811515806158aa575b61588b575b505050565b615746926001600160a01b03906158a1906140de565b51511690615a66565b5082511515615881565b949550925050816158c457505050565b615746925460601c90615a66565b508115156157f4565b6158e89160601c89615a66565b38836157dc565b91600080516020616a7583398151915293845493612710908161594d6159346001600160601b039383615924868c168b6140cb565b04998a80615a52575b5050614da2565b9683600080516020616a358339815191525416906140cb565b04968551151580615a49575b15615a235750600092835b86518110156159c7578361598884602061597e858c614101565b510151168b6140cb565b0480615998575b50600101615964565b90946001916159c09161585c826001600160a01b036159b78b8e614101565b5151168b615a66565b949061598f565b5096613db7969492506159de915092809593613f94565b9182151580615a19575b6159f5575b5050506147a3565b82615a1094959261585c926158a160018060a01b03916140de565b903880806159ed565b50805115156159e8565b9295969450505082615a3457505050565b82613db794959261585c925460601c90615a66565b50871515615959565b615a5f9160601c8a615a66565b388a61592d565b60405163a9059cbb60e01b60208201526001600160a01b0392909216602483015260448083019390935291815261574691615741606483613cb2565b91926001600160a01b038084161593919084615be7575b60005b8451811015615b1157615acf8186614101565b51615ada8289614101565b51816000526004916020928084526040938460002054928484106146aa579060019695949392916000525203906000205501615abc565b5092909391945060005b8151811015615bdf5780615b7787615b3560019486614101565b51806000526000805160206169f5833981519152602052604060ff600482600020015416615b86575b508615615b7d57615b7260005b838361607e565b61678f565b01615b1b565b615b7233615b6b565b615b8f82614c58565b90608082015115159081615bd1575b5015615b5e5788615bb4818351166117166147dc565b615bbf575b50615b5e565b615bca915116615312565b3888615bb9565b905081015142101538615b9e565b505050509050565b93909160009260005b8551811015615c305780615c066001928a614101565b51615c118289614101565b5187526004602052615c28604088209182546147a3565b905501615bf0565b509194909250615ab9565b91909260005b8451811015615c835780615c5760019285614101565b51615c628288614101565b516000526004602052615c7b60406000209182546147a3565b905501615c41565b50916001600160a01b039190821615615d48575b5060005b8351811015615d425780615cb160019286614101565b51806000526000805160206169f583398151915260205260409060ff600483600020015416615ce3575b505001615c9b565b615cec90614c58565b90608082015115159081615d34575b50615d07575b80615cdb565b83615d17818351166117166147dc565b615d22575b50615d01565b615d2d915116615312565b3883615d1c565b905081015142101538615cfb565b50509050565b91926000935b8151851015615df857615d618583614101565b5194615d6d8186614101565b51866000526004906020828152604092836000205491838310615da5576001969798999a600052520390600020550193929190615d4e565b845162461bcd60e51b815291820152602860248201527f455243313135353a206275726e20616d6f756e74206578636565647320746f74604482015267616c537570706c7960c01b606482015260849150fd5b9250925038615c97565b9081602091031261064657516001600160e01b0319811681036106465790565b60809060208152602860208201527f455243313135353a204552433131353552656365697665722072656a656374656040820152676420746f6b656e7360c01b60608201520190565b60009060033d11615e7857565b905060046000803e60005160e01c90565b600060443d10613db757604051600319913d83016004833e81516001600160401b03918282113d602484011117615ee657818401948551938411615eee573d85010160208487010111615ee65750613db792910160200190613cb2565b949350505050565b50949350505050565b60809060208152603460208201527f455243313135353a207472616e7366657220746f206e6f6e2d455243313135356040820152732932b1b2b4bb32b91034b6b83632b6b2b73a32b960611b60608201520190565b604051615fc9916001600160a01b0316615f6582613c7c565b6000806020958685527f5361666545524332303a206c6f772d6c6576656c2063616c6c206661696c656487860152868151910182855af13d15616051573d91615fad83613d4a565b92615fbb6040519485613cb2565b83523d60008785013e616890565b805190828215928315616039575b50505015615fe25750565b6084906040519062461bcd60e51b82526004820152602a60248201527f5361666545524332303a204552433230206f7065726174696f6e20646964206e6044820152691bdd081cdd58d8d9595960b21b6064820152fd5b616049935082018101910161484e565b388281615fd7565b606091616890565b6040519061606682613c7c565b600182526020368184013761607a826140de565b5290565b6001600160a01b0382811692909190831580159081616494575b61648c576000908382526000805160206169f5833981519152946020968688526040968785209960ff9360049b60ff8d820154166163ef575b506001600160601b03600080516020616a3583398151915254169586151590816163e7575b5061610a575b505050505050505050505050565b620f42409580870290878204036163d457612710879104106160fc5783875260028b528987203388528b5260ff8a882054169283156163bd575b8988528b528987209160ff8d8401541694856163b0575b50846163a4575b505060020154908115159182616399575b50159182616390575b5081616387575b50616192575b808080806160fc565b8294825b633b9aca008111156162ff575b508515616260575b5050505050156161bf578080808080616189565b5162461bcd60e51b815291820152606b60248201527f526f79616c7479207061796d656e74207265717569726564206265666f72652060448201527f7472616e736665722e2055736520696e6974696174655472616e73666572576960648201527f7468526f79616c747920616e64207061795472616e73666572526f79616c747960848201526a10333ab731ba34b7b7399760a91b60a482015260c49150fd5b825b633b9aca00811115616275575b506161ab565b8751898101838152606088901b6001600160601b03191660208201526000603482015260488101839052906162ad8160688401611cf6565b5190208552600080516020616a5583398151915289528288862054166162eb578381018091111561626257634e487b7160e01b855260118a52602485fd5b50505050505050600138808080808061626f565b8751898101838152606088901b6001600160601b03191660208201526000603482015260488101839052906163378160688401611cf6565b5190208552600080516020616a55833981519152895282888620541661637c57600a90818102918183041490151761619657634e487b7160e01b855260118a52602485fd5b5060019550386161a3565b90501538616183565b1591503861617c565b421015915038616173565b16159250600238616162565b835483161494503861615b565b925033816163cc8b600661691b565b161492616144565b634e487b7160e01b885260118d52602488fd5b9050386160f6565b8181541685149081616481575b811561645e575b501561640f57386160d1565b895162461bcd60e51b8152808d018c90526024808201527f546f6b656e206973206c6f636b656420647572696e672072656e74616c2070656044820152631c9a5bd960e21b6064820152608490fd5b3384841614915081616472575b5038616403565b6002915001544210153861646b565b8383161591506163fc565b505050505050565b506001616098565b916001600160a01b03828116929083158015616785575b61648c576000908582526000805160206169f5833981519152966020968888526040968785209960ff9360049b60ff8d82015416616734575b506001600160601b03600080516020616a3583398151915254169586151580616728575b616524575b50505050505050505050505050565b620f42409680880290888204036167145761271088910410616515578c9184895260028d528b8920338a528d5260ff8c8a2054169384156166fd575b868a528d5260ff8c8a20938401541694856166f0575b50846166e0575b5050600201549081151591826166d5575b501591826166cc575b50816166c3575b506165ad575b80808080616515565b8395835b633b9aca0081111561665c575b5086156165dc575b505050505050156161bf578080808080806165a4565b835b633b9aca008111156165f1575b506165c6565b88518a81019061660881611cf685878d8a88614820565b5190208652600080516020616a558339815191528a5283898720541661664657848101809111156165de57634e487b7160e01b865260118b52602486fd5b50505050505050506001388080808080806165eb565b88518a81019061667381611cf685878d8a88614820565b5190208652600080516020616a558339815191528a528389872054166166b857600a9081810291818304149015176165b157634e487b7160e01b865260118b52602486fd5b5060019650386165be565b9050153861659e565b15915038616597565b42101591503861658e565b8a8216911614925060023861657d565b8354831614945038616576565b9350338261670c88600661691b565b161493616560565b50634e487b7160e01b885260118d52602488fd5b50808a16841415616510565b8681541684149081616777575b8115616754575b501561640f57386164ec565b3383891614915081616768575b5038616748565b60029150015442101538616761565b8a8816838916149150616741565b50808316156164b3565b906001600160a01b039081169081158015616827575b61588657826000526000805160206169f5833981519152602052604060002060048101805460ff811680616819575b6167e057505050505050565b60ff191690555416917fdfd6ab3fc2a0e563c3389917592f1a850824730b5f05f16be9363c4adfc268da600080a438808080808061648c565b5060028301544210156167d4565b5060016167a5565b916001600160a01b03918216919082159082908215616885575b505061588657826000526000805160206169f5833981519152602052604060002060048101805460ff811680616819576167e057505050505050565b161590508138616849565b919290156168f257508151156168a4575090565b3b156168ad5790565b60405162461bcd60e51b815260206004820152601d60248201527f416464726573733a2063616c6c20746f206e6f6e2d636f6e74726163740000006044820152606490fd5b825190915015612d135750805190602001fd5b634e487b7160e01b600052605160045260246000fd5b90816004146169bc57816002146169a957816005146169565781600314616949575060060361690557600090565b613db791506117166147dc565b60405162461bcd60e51b815260206004820152602560248201527f746f6b656e4279496e646578206e6f7420737570706f7274656420696e204552604482015264433131353560d81b6064820152608490fd5b9050600052600460205260406000205490565b613db79150600052600460205260406000205415159056fed329ff8a035c3ce5df2b0dae604d660c0d8783bf7e64be00c1d10db96c0b87b4efbf0e557c8acb6e3deb011ac697e5553b802e419ed4680395101c0ddc5e8723b19546dff01e856fb3f010c267a7b1c60363cf8a4664e21cc89c26224620214e1aa44fcb526383bd2f7c6231f8c09a41edc5b654966336907d6f785a5b3d288f6b770677edae0e90cca492948fa872f24dbe9c82ebeb8d39118b033a5e1bd3e1de1159fbbeca73b2aca5752c42b257ca18171ae3b3d3bbf22c7938e3a961a0cba264697066735822122031d1af51d2ec44b67f6676657bc2dcdaf10f59eae480589c520222a43a3851f364736f6c634300081800332f8788117e7eff1d82e926ec794901d17c78024a50270940304540a733656f0d",
  "linkReferences": {},
  "deployedLinkReferences": {}
}