{
  "_format": "hh-sol-artifact-1",
  "contractName": "MockERC20",
  "sourceName": "contracts/MockERC20.sol",
  "abi": [
    {
      "inputs": [
        {
          "internalType": "string",
          "name": "name",
          "type": "string"
        },
        {
          "internalType": "string",
          "name": "symbol",
          "type": "string"
        },
        {
          "internalType": "uint8",
          "name": "decimals_",
          "type": "uint8"
        }
      ],
      "stateMutability": "nonpayable",
      "type": "constructor"
    },
    {
      "anonymous": false,
      "inputs": [
        {
          "indexed": true,
          "internalType": "address",
          "name": "owner",
          "type": "address"
        },
        {
          "indexed": true,
          "internalType": "address",
          "name": "spender",
          "type": "address"
        },
        {
          "indexed": false,
          "internalType": "uint256",
          "name": "value",
          "type": "uint256"
        }
      ],
      "name": "Approval",
      "type": "event"
    },
    {
      "anonymous": false,
      "inputs": [
        {
          "indexed": true,
          "internalType": "address",
          "name": "from",
          "type": "address"
        },
        {
          "indexed": true,
          "internalType": "address",
          "name": "to",
          "type": "address"
        },
        {
          "indexed": false,
          "internalType": "uint256",
          "name": "value",
          "type": "uint256"
        }
      ],
      "name": "Transfer",
      "type": "event"
    },
    {
      "inputs": [],
      "name": "INITIAL_SUPPLY",
      "outputs": [
        {
          "internalType": "uint256",
          "name": "",
          "type": "uint256"
        }
      ],
      "stateMutability": "view",
      "type": "function"
    },
    {
      "inputs": [
        {
          "internalType": "address",
          "name": "owner",
          "type": "address"
        },
        {
          "internalType": "address",
          "name": "spender",
          "type": "address"
        }
      ],
      "name": "allowance",
      "outputs": [
        {
          "internalType": "uint256",
          "name": "",
          "type": "uint256"
        }
      ],
      "stateMutability": "view",
      "type": "function"
    },
    {
      "inputs": [
        {
          "internalType": "address",
          "name": "spender",
          "type": "address"
        },
        {
          "internalType": "uint256",
          "name": "amount",
          "type": "uint256"
        }
      ],
      "name": "approve",
      "outputs": [
        {
          "internalType": "bool",
          "name": "",
          "type": "bool"
        }
      ],
      "stateMutability": "nonpayable",
      "type": "function"
    },
    {
      "inputs": [
        {
          "internalType": "address",
          "name": "account",
          "type": "address"
        }
      ],
      "name": "balanceOf",
      "outputs": [
        {
          "internalType": "uint256",
          "name": "",
          "type": "uint256"
        }
      ],
      "stateMutability": "view",
      "type": "function"
    },
    {
      "inputs": [],
      "name": "decimals",
      "outputs": [
        {
          "internalType": "uint8",
          "name": "",
          "type": "uint8"
        }
      ],
      "stateMutability": "view",
      "type": "function"
    },
    {
      "inputs": [
        {
          "internalType": "address",
          "name": "spender",
          "type": "address"
        },
        {
          "internalType": "uint256",
          "name": "subtractedValue",
          "type": "uint256"
        }
      ],
      "name": "decreaseAllowance",
      "outputs": [
        {
          "internalType": "bool",
          "name": "",
          "type": "bool"
        }
      ],
      "stateMutability": "nonpayable",
      "type": "function"
    },
    {
      "inputs": [
        {
          "internalType": "address",
          "name": "spender",
          "type": "address"
        },
        {
          "internalType": "uint256",
          "name": "addedValue",
          "type": "uint256"
        }
      ],
      "name": "increaseAllowance",
      "outputs": [
        {
          "internalType": "bool",
          "name": "",
          "type": "bool"
        }
      ],
      "stateMutability": "nonpayable",
      "type": "function"
    },
    {
      "inputs": [
        {
          "internalType": "address",
          "name": "to",
          "type": "address"
        },
        {
          "internalType": "uint256",
          "name": "amount",
          "type": "uint256"
        }
      ],
      "name": "mint",
      "outputs": [],
      "stateMutability": "nonpayable",
      "type": "function"
    },
    {
      "inputs": [],
      "name": "name",
      "outputs": [
        {
          "internalType": "string",
          "name": "",
          "type": "string"
        }
      ],
      "stateMutability": "view",
      "type": "function"
    },
    {
      "inputs": [],
      "name": "symbol",
      "outputs": [
        {
          "internalType": "string",
          "name": "",
          "type": "string"
        }
      ],
      "stateMutability": "view",
      "type": "function"
    },
    {
      "inputs": [],
      "name": "totalSupply",
      "outputs": [
        {
          "internalType": "uint256",
          "name": "",
          "type": "uint256"
        }
      ],
      "stateMutability": "view",
      "type": "function"
    },
    {
      "inputs": [
        {
          "internalType": "address",
          "name": "to",
          "type": "address"
        },
        {
          "internalType": "uint256",
          "name": "amount",
          "type": "uint256"
        }
      ],
      "name": "transfer",
      "outputs": [
        {
          "internalType": "bool",
          "name": "",
          "type": "bool"
        }
      ],
      "stateMutability": "nonpayable",
      "type": "function"
    },
    {
      "inputs": [
        {
          "internalType": "address",
          "name": "from",
          "type": "address"
        },
        {
          "internalType": "address",
          "name": "to",
          "type": "address"
        },
        {
          "internalType": "uint256",
          "name": "amount",
          "type": "uint256"
        }
      ],
      "name": "transferFrom",
      "outputs": [
        {
          "internalType": "bool",
          "name": "",
          "type": "bool"
        }
      ],
      "stateMutability": "nonpayable",
      "type": "function"
    }
  ],
  "bytecode": "0x60406080815234620004155762000e65803803806200001e816200041a565b9283398101606082820312620004155781516001600160401b0392908381116200041557826200005091830162000440565b60209283830151858111620004155786916200006e91850162000440565b9201519060ff82168092036200041557805194808611620003155760038054966001938489811c991680156200040a575b888a1014620003f4578190601f998a81116200039e575b5088908a831160011462000337576000926200032b575b505060001982841b1c191690841b1781555b8451918211620003155760049485548481811c911680156200030a575b88821014620002f557888111620002aa575b5086908884116001146200023f5793839491849260009562000233575b50501b92600019911b1c19161782555b8060ff196005541617600555604d81116200021e57600a0a92620f424093808502948504036200021e573315620001df575060025490838201809211620001ca57506000917fddf252ad1be2c89b69c2b068fc378daa952ba7f163c4a11628f55a4df523b3ef9160025533835282815284832084815401905584519384523393a3516109b29081620004b38239f35b601190634e487b7160e01b6000525260246000fd5b60649285519262461bcd60e51b845283015260248201527f45524332303a206d696e7420746f20746865207a65726f2061646472657373006044820152fd5b601182634e487b7160e01b6000525260246000fd5b0151935038806200012b565b9190601f198416928760005284896000209460005b8b8983831062000292575050501062000277575b50505050811b0182556200013b565b01519060f884600019921b161c191690553880808062000268565b86860151895590970196948501948893500162000254565b86600052876000208980860160051c8201928a8710620002eb575b0160051c019085905b828110620002de5750506200010e565b60008155018590620002ce565b92508192620002c5565b602287634e487b7160e01b6000525260246000fd5b90607f1690620000fc565b634e487b7160e01b600052604160045260246000fd5b015190503880620000cd565b90869350601f19831691856000528a6000209260005b8c8282106200038757505084116200036e575b505050811b018155620000df565b015160001983861b60f8161c1916905538808062000360565b8385015186558a979095019493840193016200034d565b90915083600052886000208a80850160051c8201928b8610620003ea575b918891869594930160051c01915b828110620003da575050620000b6565b60008155859450889101620003ca565b92508192620003bc565b634e487b7160e01b600052602260045260246000fd5b98607f16986200009f565b600080fd5b6040519190601f01601f191682016001600160401b038111838210176200031557604052565b919080601f84011215620004155782516001600160401b038111620003155760209062000476601f8201601f191683016200041a565b92818452828287010111620004155760005b8181106200049e57508260009394955001015290565b85810183015184820184015282016200048856fe608060408181526004918236101561001657600080fd5b600092833560e01c91826306fdde031461059557508163095ea7b31461056b57816318160ddd1461054c57816323b872dd146104825781632ff2e9dc14610464578163313ce5671461044257816339509351146103f257816340c10f191461032f57816370a08231146102f857816395d89b41146101d7578163a457c2d71461012f57508063a9059cbb146100ff5763dd62ed3e146100b457600080fd5b346100fb57806003193601126100fb57806020926100d06106b8565b6100d86106d3565b6001600160a01b0391821683526001865283832091168252845220549051908152f35b5080fd5b50346100fb57806003193601126100fb5760209061012861011e6106b8565b602435903361080e565b5160018152f35b905082346101d457826003193601126101d45761014a6106b8565b918360243592338152600160205281812060018060a01b038616825260205220549082821061018357602085610128858503873361070c565b608490602086519162461bcd60e51b8352820152602560248201527f45524332303a2064656372656173656420616c6c6f77616e63652062656c6f77604482015264207a65726f60d81b6064820152fd5b80fd5b8383346100fb57816003193601126100fb5780519082845460018160011c90600183169283156102ee575b60209384841081146102db578388529081156102bf575060011461026a575b505050829003601f01601f191682019267ffffffffffffffff841183851017610257575082918261025392528261066f565b0390f35b634e487b7160e01b815260418552602490fd5b8787529192508591837f8a35acfbc15ff81a39ae7d344fd709f28e8600b4aa8c65c6b64bfe7fe36bd19b5b8385106102ab5750505050830101858080610221565b805488860183015293019284908201610295565b60ff1916878501525050151560051b8401019050858080610221565b634e487b7160e01b895260228a52602489fd5b91607f1691610202565b5050346100fb5760203660031901126100fb5760209181906001600160a01b036103206106b8565b16815280845220549051908152f35b919050346103ee57806003193601126103ee5761034a6106b8565b6001600160a01b031691602435919083156103ac57506020827fddf252ad1be2c89b69c2b068fc378daa952ba7f163c4a11628f55a4df523b3ef9261039287956002546106e9565b60025585855284835280852082815401905551908152a380f35b6020606492519162461bcd60e51b8352820152601f60248201527f45524332303a206d696e7420746f20746865207a65726f2061646472657373006044820152fd5b8280fd5b5050346100fb57806003193601126100fb5761012860209261043b6104156106b8565b338352600186528483206001600160a01b038216845286529184902054602435906106e9565b903361070c565b5050346100fb57816003193601126100fb5760209060ff600554169051908152f35b5050346100fb57816003193601126100fb5760209051620f42408152f35b839150346100fb5760603660031901126100fb5761049e6106b8565b6104a66106d3565b91846044359460018060a01b0384168152600160205281812033825260205220549060001982036104e0575b60208661012887878761080e565b84821061050957509183916104fe602096956101289503338361070c565b9193948193506104d2565b606490602087519162461bcd60e51b8352820152601d60248201527f45524332303a20696e73756666696369656e7420616c6c6f77616e63650000006044820152fd5b5050346100fb57816003193601126100fb576020906002549051908152f35b5050346100fb57806003193601126100fb5760209061012861058b6106b8565b602435903361070c565b849084346103ee57826003193601126103ee578260035460018160011c9060018316928315610665575b60209384841081146102db578388529081156102bf575060011461060f57505050829003601f01601f191682019267ffffffffffffffff841183851017610257575082918261025392528261066f565b600387529192508591837fc2575a0e9e593c00f959f8c92f12db2869c3395a3b0502d05e2516446f71f85b5b8385106106515750505050830101858080610221565b80548886018301529301928490820161063b565b91607f16916105bf565b6020808252825181830181905290939260005b8281106106a457505060409293506000838284010152601f8019910116010190565b818101860151848201604001528501610682565b600435906001600160a01b03821682036106ce57565b600080fd5b602435906001600160a01b03821682036106ce57565b919082018092116106f657565b634e487b7160e01b600052601160045260246000fd5b6001600160a01b039081169182156107bd571691821561076d5760207f8c5be1e5ebec7d5bd14f71427d1e84f3dd0314c0f7b2291e5b200ac8c7c3b925918360005260018252604060002085600052825280604060002055604051908152a3565b60405162461bcd60e51b815260206004820152602260248201527f45524332303a20617070726f766520746f20746865207a65726f206164647265604482015261737360f01b6064820152608490fd5b60405162461bcd60e51b8152602060048201526024808201527f45524332303a20617070726f76652066726f6d20746865207a65726f206164646044820152637265737360e01b6064820152608490fd5b6001600160a01b0390811691821561092957169182156108d85760008281528060205260408120549180831061088457604082827fddf252ad1be2c89b69c2b068fc378daa952ba7f163c4a11628f55a4df523b3ef958760209652828652038282205586815220818154019055604051908152a3565b60405162461bcd60e51b815260206004820152602660248201527f45524332303a207472616e7366657220616d6f756e7420657863656564732062604482015265616c616e636560d01b6064820152608490fd5b60405162461bcd60e51b815260206004820152602360248201527f45524332303a207472616e7366657220746f20746865207a65726f206164647260448201526265737360e81b6064820152608490fd5b60405162461bcd60e51b815260206004820152602560248201527f45524332303a207472616e736665722066726f6d20746865207a65726f206164604482015264647265737360d81b6064820152608490fdfea26469706673582212207f7f2b3328fa60cbcb035882960512c446802230abaa524c46be73757bb9718464736f6c63430008180033",
  "linkReferences": {},
  "deployedLinkReferences": {}
}